:100000000C94E4000C940C010C940C010C940C0165
:100010000C940C010C940C010C940C010C940C012C
:100020000C940C010C940C010C94FA0C0C94690DBA
:100030000C940C010C940C010C940C010C940C010C
:100040000C940C010C940C010C940C010C940C01FC
:100050000C940C010C940C010C940C010C94B00C3D
:100060000C940C010C940C010C940C010C940C01DC
:100070000C940C010C940C010C940C010C940C01CC
:100080000C940C010C940C010C940C010C940C01BC
:100090000C949B0F0C940C010C940C010C940C010F
:1000A0000C940C010C940C010C940C0131383A3472
:1000B000363A3331004A616E2031302032303231ED
:1000C00000080B0002020200000904000001020205
:1000D000000005240010010524010101042402068A
:1000E00005240600010705810310004009040100F2
:1000F000020A000000070502024000000705830213
:100100004000000403090412010002EF0201404113
:1001100023418000010102030141726475696E6F21
:10012000204C4C430041726475696E6F2059756EA6
:100130000000000000240027002A002D00300000ED
:10014000000000250028002B002E003100000000D8
:10015000002300260029002C002F000404040404BE
:10016000030405020202020403020202020606065A
:1001700006060604040202020404040802011040F8
:100180008040102040804080080204018040201000
:100190000201108010204040200000000200090FE2
:1001A0000000030401000C0000000000000000003B
:1001B00000000000000000001F1C1F1E1F1E1F1F4C
:1001C0001E1F1E00BA10AA1611241FBECFEFDAE0C0
:1001D000DEBFCDBF25E0A0EDB3E001C01D92A03A87
:1001E000B207E1F713E0A0E0B1E0E2E3F8E302C018
:1001F00005900D92A03DB107D9F710E0C3EED0E015
:1002000004C02197FE010E947317C23ED107C9F7AF
:100210000E9445110C940C1C0C940000DC011596F6
:100220001C92159714961C92149713961C92139770
:100230001C9281E011968C93119711968C911197D5
:100240008C3070F4282F2150330BF901E854FE4F05
:10025000E491823009F4EF5FE11102C08F5FEACFD1
:1002600081E012968C93089508950895FC01809181
:100270005C04882311F13FB7F89482E08093E90091
:100280002091F200822F90E01816190614F481E0F4
:1002900090E0882339F0289844E640935B0440912D
:1002A000F1004083222339F02091F200211103C094
:1002B0002BE62093E8003FBF08958FEF9FEF08954E
:1002C0002FB7F89483E08093E9009091E800892F9C
:1002D000807295FF04C09091F20080E4891B2FBFCB
:1002E00008958091530481110DC082E080934F04E2
:1002F00084E080935004109252041092510481E0E3
:10030000809353048FE494E0089581508F3008F077
:1003100047C0E82FF0E0E157FE4F0C947317AC0193
:10032000B0019E01A401A801D001D001D001B30108
:10033000B901BD01C101C701D001CB01809180008D
:100340008F77809380000895809180008F7DF9CF12
:1003500080918000877FF5CF84B58F7784BD089525
:1003600084B58F7DFBCF809190008F778093900034
:100370000895809190008F7DF9CF80919000877FC4
:10038000F5CF8091C0008F778093C0000895809151
:10039000C0008F7DF9CF8091C200877F8093C2001B
:1003A0000895CF93DF93282F30E0F901E756FE4FF1
:1003B0008491F901E658FE4FD491F901E55AFE4FB8
:1003C000C491CC23A1F081110E948501EC2FF0E0B3
:1003D000EE0FFF1FE35BFE4FA591B491EC91ED236F
:1003E00081E090E009F480E0DF91CF91089580E012
:1003F00090E0FACF1F93CF93DF93282F30E0F901DD
:10040000E756FE4F8491F901E658FE4FD491F90169
:10041000E55AFE4FC491CC23A9F0162F81110E94FA
:100420008501EC2FF0E0EE0FFF1FE15CFE4FA59180
:10043000B4918FB7F894EC91111108C0D095DE23D8
:10044000DC938FBFDF91CF911F910895DE2BF8CF02
:10045000CF93DF9390E0FC01E658FE4F2491855A3C
:100460009E4FFC0184918823C9F090E0880F991F6A
:10047000FC01EF5CFE4FA591B491FC01E15CFE4FE5
:10048000C591D49161110DC09FB7F8948C912095BE
:1004900082238C938881282328839FBFDF91CF916B
:1004A0000895623051F49FB7F8943C91822F809563
:1004B00083238C93E8812E2BEFCF8FB7F894EC91A8
:1004C0002E2B2C938FBFEACF3FB7F89480914B042B
:1004D00090914C04A0914D04B0914E0426B5A89B78
:1004E00005C02F3F19F00196A11DB11D3FBFBA2FC6
:1004F000A92F982F8827BC01CD01620F711D811D86
:10050000911D42E0660F771F881F991F4A95D1F70A
:1005100008958F929F92AF92BF92CF92DF92EF9207
:10052000FF924B015C010E9464026B017C010E94FE
:1005300064026C197D098E099F09683E734081052C
:100540009105A8F321E0821A9108A108B10888EE6C
:10055000C80E83E0D81EE11CF11C81149104A10493
:10056000B10429F7FF90EF90DF90CF90BF90AF904C
:100570009F908F90089540914004509141042091A4
:100580003E0430913F0442175307B4F49091E800C1
:100590009570E1F39091E80092FD19C08093F1000D
:1005A000809140049091410401968F739927892B83
:1005B00019F48EEF8093E8008091400490914104FB
:1005C0000196909341048093400481E0089580E077
:1005D0000895EF92FF920F931F93CF93DF93F82E1E
:1005E000192FE62E042F81E0860F880F0E94BB0290
:1005F00083E00E94BB02CF2DD12FEC0EFD2EF11C0B
:10060000CE15DF05B9F007FF13C0FE0184910E94EB
:10061000BB02182F80E00E94BB028123219681112A
:10062000EFCFDF91CF911F910F91FF90EF90089541
:100630008881EDCF81E0F5CFDF92EF92FF920F93AB
:100640001F93CF93DF93D82E8A01EB017B01E40E39
:10065000F51ECE15DF0559F0D7FE12C0FE018491BC
:100660000E94BB0221968111F4CF0FEF1FEFC8014A
:10067000DF91CF911F910F91FF90EF90DF90089540
:100680008881EECF0F931F93CF93DF931F92CDB747
:10069000DEB782E0898342E450E061EC70E080E8FC
:1006A0000E941C030E947101DC0112960D911C91A5
:1006B0000115110589F0D801ED91FC910280F381BB
:1006C000E02DBE016F5F7F4FC801099597FD04C003
:1006D000F80100851185ECCF89810F90DF91CF91D2
:1006E0001F910F910895615030F02091F100FC01AD
:1006F00020830196F8CF289884E680935B040895C0
:10070000DB0114964D915C9115976D917C91DC0104
:10071000ED91FC910280F381E02D0994AF92BF929C
:10072000CF92DF92EF92FF920F931F93CF93DF93BD
:100730006C017B018B01040F151FEB015E01AE18EC
:10074000BF08C017D10759F06991D601ED91FC910E
:100750000190F081E02DC6010995892B79F7C5013B
:10076000DF91CF911F910F91FF90EF90DF90CF908D
:10077000BF90AF9008958F929F92AF92BF92CF9209
:10078000DF92EF92FF920F931F93CF93DF936C0151
:100790007B018A0180914B01882309F45CC0809120
:1007A0005C04882309F457C08091440480FF05C08D
:1007B0008091E00082608093E000E801B12C8AEF34
:1007C000A82E93E0892E2AE3922E209711F4BB20C5
:1007D000D9F10E94600181110AC0AA94AA20D9F11E
:1007E00061E070E080E090E00E948902EECF8C171B
:1007F0001D0611F00CF08C2F9FB7F8948092E90041
:100800002091E80025FD02C09FBFDFCF282F30E0F8
:10081000C21BD30BF701815020F041914093F100AE
:10082000FACFE20EF31EBB2021F09092E800B12C2B
:10083000EBCF8091E80085FDE7CF9092E800BB24E4
:10084000B394209709F3F3CF5D9884E68093450431
:10085000101611063CF081E090E0F601938382834C
:1008600010E000E0C801DF91CF911F910F91FF9040
:10087000EF90DF90CF90BF90AF909F908F900895B2
:10088000CF93DF931F92CDB7DEB76983DC01ED9183
:10089000FC910280F381E02D41E050E0BE016F5FEA
:1008A0007F4F09950F90DF91CF91089583E080935A
:1008B000E9008091F200882319F08AE38093E80030
:1008C00008950E94600190E00895CF93DF931F92F6
:1008D000CDB7DEB7FC018485958597FD08C02FEF65
:1008E0003FEF358724870F90DF91CF910895CE0198
:1008F00001960E943601019719F4898190E0F3CFA7
:100900008FEF9FEFF0CF0F931F93CF93DF931F9243
:10091000CDB7DEB78C01FC018485958597FF0BC0B0
:10092000CE0101960E943601019771F4898190E011
:10093000F80195878487F801848595850F90DF916C
:10094000CF911F910F9108958FEF9FEFF1CFFC0191
:100950008485958597FD0BC09FB7F89482E08093BE
:10096000E9008091F2009FBF90E0019608959FB743
:10097000F89482E08093E9008091F2009FBF90E0BC
:10098000089520910504260F3327331F21323105A6
:10099000ECF42091AA04FC0190E080E0243069F09E
:1009A00082E00895A09105042191AC014B515C4F68
:1009B000A40FB52FB11D2C930196861798F3809143
:1009C0000504680F6093050480E0089581E00895B0
:1009D0001092AA0481E08093A9041092840461E03B
:1009E00082E00E94FA0161E083E00E94FA01E9EBF3
:1009F000F0E080818E7F808380818D7F808388E49A
:100A00008093B80085E48093BC000895109262043E
:100A1000109261041092B1041092D3040E94E80471
:100A200084E391E09093600480935F0485E391E018
:100A300090935E0480935D040895CF93DF9391E0DB
:100A40009093E4038823B9F0C091B800D091BA0024
:100A50008091BC008A7B8093BC0060E082E00E94B1
:100A6000FA0160E083E00E94FA010E94E804D0935A
:100A7000BA00C093B800DF91CF910895CF92DF9272
:100A8000EF92FF920F931F93CF93DF93D091D304F4
:100A900081E0D13208F09CC0C091D2040E9464026F
:100AA0006B017C018091AA0481116CC082E080936B
:100AB000AA0481E08093A9048FEF8093A804109288
:100AC000A704D093A604A2EBB4E0E6E8F4E080E04B
:100AD000D8138DC01092850480918504CC0FC82B4B
:100AE000C093850480918404813009F084C0109201
:100AF00084040E9464026B017C01809185048093D0
:100B0000BB008091AC049091AD04A091AE04B09173
:100B1000AF04892B8A2B8B2BA1F00E9464020091D9
:100B2000AC041091AD042091AE043091AF046C1967
:100B30007D098E099F09061717072807390708F44A
:100B400042C08091BC0083FDD8CF85EC8093BC006F
:100B50000E9464026B017C018091AA04823009F436
:100B60004CC08091A8048F3F09F469C08091A8040B
:100B7000803209F466C08091A804803309F463C010
:100B800084E026C08091AC049091AD04A091AE04A5
:100B9000B091AF04892B8A2B8B2B09F483CF0E9451
:100BA00064020091AC041091AD042091AE04309128
:100BB000AF046C197D098E099F09061717072807CE
:100BC000390708F06FCF8091AB040E941D0585E0C6
:100BD0001092B1041092D3041092B004DF91CF911F
:100BE0001F910F91FF90EF90DF90CF9008959D910E
:100BF00091938F5F6DCF85EEA9CF8091AC049091DA
:100C0000AD04A091AE04B091AF04892B8A2B8B2B3D
:100C100009F4A2CF0E9464020091AC041091AD04CB
:100C20002091AE043091AF046C197D098E099F09A3
:100C3000061717072807390708F08ECFC4CF80E0C2
:100C4000C7CF82E0C5CF83E0C3CFCF92DF92EF92D0
:100C5000FF920F931F93CF93DF93D82FC62F61324C
:100C600008F098C00E9464026B017C018091AA0484
:100C700081116BC081E08093AA048093A9049FEF47
:100C80009093A8041092A7049C0F9093A6048093BD
:100C9000850480918504DD0FD82BD0938504809145
:100CA0008404813009F078C0109284040E946402A8
:100CB0006B017C01809185048093BB008091AC0422
:100CC0009091AD04A091AE04B091AF04892B8A2B12
:100CD0008B2BA1F00E9464020091AC041091AD0432
:100CE0002091AE043091AF046C197D098E099F09E3
:100CF000061717072807390708F448C08091BC0079
:100D000083FDD8CF85EC8093BC000E9464026B0108
:100D10007C018091AA04813009F440C08091A7042D
:100D20008C1710F4C091A704E6E8F4E0A3E6B4E061
:100D300080E08C1355C08C2FDF91CF911F910F91C4
:100D4000FF90EF90DF90CF9008958091AC04909148
:100D5000AD04A091AE04B091AF04892B8A2B8B2BEC
:100D600009F484CF0E9464020091AC041091AD0498
:100D70002091AE043091AF046C197D098E099F0952
:100D8000061717072807390708F070CF8091AB04C2
:100D90000E941D05C0E0CFCF85EEB5CF8091AC0499
:100DA0009091AD04A091AE04B091AF04892B8A2B31
:100DB0008B2B09F4AECF0E9464020091AC04109119
:100DC000AD042091AE043091AF046C197D098E09F9
:100DD0009F09061717072807390708F09ACFD6CFBB
:100DE00091919D938F5FA5CF0895E09162048091CA
:100DF0006104E81730F4F0E0ED59FB4F808190E09A
:100E000008958FEF9FEF089590916204809161049F
:100E10002FEF3FEF981748F4E92FF0E0ED59FB4F23
:100E2000208130E09F5F90936204C9010895809112
:100E3000610490916204891B990B0895CF92DF920F
:100E4000EF92FF920F931F93CF93DF937C01CB011F
:100E50008A012091B004222389F0EB016B01C40EBA
:100E6000D51ECC15DD0569F06991D701ED91FC9196
:100E70000190F081E02DC7010995F3CF642F0E9406
:100E8000C104C801DF91CF911F910F91FF90EF90A6
:100E9000DF90CF900895CF93DF931F92CDB7DEB749
:100EA00069832091B0042223F9F02091D3042032E9
:100EB00058F021E030E0FC013383228390E080E0B1
:100EC0000F90DF91CF9108958091B104E82FF0E069
:100ED000EE54FB4F998190838F5F8093B104809390
:100EE000D30481E090E0ECCF61E0CE0101960E9456
:100EF000C104F7CFFC01248131E03093B00420938A
:100F0000D2041092B1041092D3048385682B84E23A
:100F100095E00E944B070C943E05089590E080E018
:100F20000895FC01908190539A3008F090E08181FF
:100F300080532AE0929F800D11240895DC0150E037
:100F4000E8EBF1E081E0861730F49491490F511DF0
:100F50008F5F3196F8CF633038F0CD0183709927D9
:100F6000892B11F44F5F5F4F9D012D5F3F4F3695E9
:100F70002795369527956DE671E0A69FC001A79F3E
:100F8000900DB69F900D11240197820F931F840F2F
:100F9000951F0895EF92FF920F931F93CF93DF93C6
:100FA000EC0188814A81698190E00E949E079C0142
:100FB000A8E1B0E00E940E172B817B018C01E20EAC
:100FC000F11C011D111DA8019701ACE3B0E00E94C6
:100FD000CC162C817B018C01E20EF11C011D111D30
:100FE000A80197010E94CC16AB01BC019D81892FFD
:100FF00090E0B0E0A0E080589C4BA249B74C8A0139
:101000009B01080F191F2A1F3B1FC901B801DF915F
:10101000CF911F910F91FF90EF900895CF93DF93A1
:1010200082E00E94D101EC0184E00E94D101209174
:10103000E303892B71F4211113C081E08093E30352
:1010400083E090E0D0932904C0932804DF91CF91EE
:101050000895222329F01092E30390E080E0F2CF7C
:1010600080912804909129048C179D07B1F383E0A7
:101070000E94D1018C179D0719F082E090E0E2CF29
:1010800081E090E0DFCF80918304882321F061E04C
:1010900087E00E94FA0188E080939B0560E080E988
:1010A00095E00C947A0781E08093B00488E6809301
:1010B000D2041092B1041092D3046FE084E295E060
:1010C0000E944B070E943E0561E088E60E942506CB
:1010D000109262048093610484E295E00E94040708
:1010E0000895FF920F931F93CF93DF93EC0101E0DC
:1010F0000093B00418E61093D2041092B104109239
:10110000D30460E084E295E00E944B072D818AE0E1
:10111000F82E822F6F2D0E941D17682F660F680F03
:10112000660F620F84E295E00E944B072C81822FAC
:101130006F2D0E941D17682F660F680F660F620FD4
:1011400084E295E00E944B072B81822F6F2D0E9435
:101150001D17682F660F680F660F620F84E295E017
:101160000E944B0760E084E295E00E944B072A81D1
:10117000822F6F2D0E941D17682F660F680F660F54
:10118000620F84E295E00E944B072981822F6F2D28
:101190000E941D17682F660F680F660F620F84E2AA
:1011A00095E00E944B072881822F6F2D0E941D170A
:1011B000682F660F680F660F620F84E295E00E9449
:1011C0004B070E943E050E945308C82F0093B004AD
:1011D0001093D2041092B1041092D3046FE084E211
:1011E00095E00E944B076C2F6F7784E295E00E9498
:1011F0004B07DF91CF911F910F91FF900C943E050B
:101200000F931F93CF938C01C62F0E947A076C2FE8
:101210006460C8010E947A076C2F6B7FC8010E942E
:101220007A0783EC90E00197F1F7CF911F910F912E
:101230000895CF93C82F682F607F80E995E00E94C2
:10124000000980E1C89FB001112480E995E0CF91A9
:101250000C940009CF93DF93CDB7DEB728970FB674
:10126000F894DEBF0FBECDBF98E0E2E5F1E0DE010D
:10127000119601900D929A95E1F790919805961725
:1012800008F46FEF70E0660F771F21E030E02C0F5D
:101290003D1F620F731FFB019081890F80682896A4
:1012A0000FB6F894DEBF0FBECDBFDF91CF910C9487
:1012B000190981E00E9419098BE39FE10197F1F779
:1012C00008950F931F93CF938C01C62F607F6160A9
:1012D0000E94000980E1C89FB00111246160C8012B
:1012E0000E94000981E090E0CF911F910F91089535
:1012F0000F931F93CF93DF938B0128E0829FC00150
:10130000112480640E941909E801085F1F4F699148
:1013100080E995E00E946109C017D107C1F7DF910C
:10132000CF911F910F9108950F931F93CF93DF9348
:10133000EC0188819981009759F02A813B81261719
:10134000370730F081E0DF91CF911F910F91089521
:101350008B016F5F7F4F0E949E18009759F0998311
:1013600088831B830A832C813D81232B59F7FC0141
:101370001082E8CF80E0E7CFFC0180819181009767
:1013800011F00C9415180895FB0101900020E9F765
:101390003197AF01461B570BDC01ED91FC910280A8
:1013A000F381E02D0994CF93DF93BC0184ED94E0A9
:1013B0000E94C409EC0161E971E084ED94E00E94AF
:1013C000C4098C0F9D1FDF91CF91089561E08CE0DF
:1013D0000E94FA0160E088E00E94FA0184E991E04D
:1013E0000C94D3094F925F926F927F928F929F924B
:1013F000AF92BF92CF92DF92EF92FF920F931F9323
:10140000CF93DF93CDB7DEB7A1970FB6F894DEBFC9
:101410000FBECDBF8C016B01770FEE08FF08F7FE02
:1014200049C0DC01ED91FC910190F081E02D6DE26D
:1014300009955C0122273327A9012C193D094E0982
:101440005F0919A2FE01B1967F019AE0492E512C45
:10145000612C712CCA01B901A30192010E9451179C
:10146000605DD7016E937D01211531054105510560
:1014700089F790E080E0109721F0BD01C8010E943B
:10148000C4098A0D9B1DA1960FB6F894DEBF0FBE4E
:10149000CDBFDF91CF911F910F91FF90EF90DF9023
:1014A000CF90BF90AF909F908F907F906F905F9004
:1014B0004F900895A701960119A2FE01B1967F01F0
:1014C0008AE0882E912CA12CB12CCA01B901A5016A
:1014D00094010E945117605DD7016E937D01211523
:1014E00031054105510589F790E080E0109759F2E8
:1014F000BD01C8010E94C409C6CF0C94C409EF9273
:10150000FF920F931F93CF93DF93EC017B0119821E
:1015100018821B821A821D821C82FB01019000200E
:10152000E9F731978F01061B170BB8010E94940948
:1015300028813981811113C02115310519F0C901A4
:101540000E941518198218821D821C821B821A8221
:10155000DF91CF911F910F91FF90EF9008951D8320
:101560000C83B701C901DF91CF911F910F91FF90BB
:10157000EF900C946419DF92EF92FF920F931F93F8
:10158000CF93DF9300D000D000D0CDB7DEB78C0171
:10159000D62E8FEF9FEF90933D0480933C040E94E2
:1015A000E6090E94590982E00E9419098BE39FE134
:1015B0000197F1F76EEA71E080E995E00E947D0AFB
:1015C00061E080E00E942A09B80180E995E00E946C
:1015D000800365EB71E0CE0101960E947F0AF8015D
:1015E000E080F180E114F104C9F104811581011555
:1015F0001105B1F08D819E81080F191FB801CE0130
:1016000001960E949409882349F129813A818D81AC
:101610009E81B701820F931F0E9464191E830D8360
:10162000BE016F5F7F4F84ED94E00E94800361E90B
:1016300071E084ED94E00E94C409CE0101960E94FD
:10164000BC0960E08FE00E942A09DD20A1F064E07F
:1016500070E080E995E00E94F209FFCF89819A81CC
:10166000009711F00E9415181A8219821E821D829D
:101670001C821B82D5CF65E070E080E995E00E9476
:10168000F2090E940E08892BE1F310923D0410929A
:101690003C0481E080932B0426960FB6F894DEBFBD
:1016A0000FBECDBFDF91CF911F910F91FF90EF90B3
:1016B000DF90089585ED8093BC008091AC049091FB
:1016C000AD04A091AE04B091AF040796A11DB11D69
:1016D00023E0B695A795979587952A95D1F7209100
:1016E000BC0024FD03C01092AA0408954091AC04EC
:1016F0005091AD046091AE047091AF04452B462B20
:10170000472B69F30097A105B10541F025E32A9520
:10171000F1F700000197A109B109E1CF8091AB0475
:101720000C941D051F93CF93DF936EEB71E084ED56
:1017300094E00E947D0A60913C0470913D0484ED28
:1017400094E00E94F20967EE71E084ED94E00E945B
:101750007D0A60912B0470E084ED94E00E94F20910
:1017600081E493E00E94D30910912B0411110E948F
:101770005909C0913C04D0913D04209761F0D7FDF8
:1017800004C0C830D1050CF490C010922B04DF9136
:10179000CF911F9108951123A1F00E94590960E093
:1017A00080E00E942A0966E080E995E00E946109D4
:1017B00061E080E00E942A0967E080E995E00E94EC
:1017C000610980918F051F928F9380918E051F92E2
:1017D0008F9380918D051F928F9389EF91E09F9356
:1017E0008F93C7EDD3E0DF93CF930E946B1960E036
:1017F00081E00E942A09BE0180E995E00E947D0AED
:1018000080918A0590E08053984F9F938F938091A9
:101810008B051F928F9380918C051F928F9388E088
:1018200092E09F938F93DF93CF930E946B1961E0B7
:1018300081E00E942A09BE0180E995E00E947D0AAC
:1018400061E08CE00E942A0980918A0540918C0514
:1018500060918B0590E00E949E07069667E070E01D
:101860000E94291726E0289FB001299F700D11249E
:10187000665A7A4F80E995E00E94800360E08FE02D
:101880000E942A098DB79EB744960FB6F8949EBF62
:101890000FBE8DBF8091830461E0811101C062E0C1
:1018A00080E995E00E94610970CF112301F10E9447
:1018B000590960E080E00E942A09CE0167E070E0EB
:1018C0000E943D1726E0289FB001299F700D11242A
:1018D000605D7A4F80E995E00E94800361E080E0DE
:1018E0000E942A0966E080E995E00E94610961E0B2
:1018F00085E00E942A0980912A0467E172E0811143
:1019000002C06FE172E080E995E00E947D0A80915B
:101910002C0490912D046CE370E00E943D179F937E
:101920008F937F936F938EEF91E09F938F9380EDD2
:1019300093E09F938F930E946B1961E086E00E9471
:101940002A0960ED73E080E995E00E947D0A8DB779
:101950009EB708960FB6F8949EBF0FBE8DBF15CFE9
:101960001F920F920FB60F9211242F933F938F93D4
:101970009F93AF93BF938091470490914804A091A7
:101980004904B0914A043091460423E0230F2D37D7
:1019900058F50196A11DB11D20934604809347047C
:1019A00090934804A0934904B0934A0480914B0457
:1019B00090914C04A0914D04B0914E040196A11D4C
:1019C000B11D80934B0490934C04A0934D04B093AD
:1019D0004E04BF91AF919F918F913F912F910F90A6
:1019E0000FBE0F901F90189526E8230F0296A11D99
:1019F000B11DD2CF1F920F920FB60F9211248F9369
:101A00009F938091E1009091E100937F9093E1009A
:101A100083FF0FC01092E90091E09093EB001092C9
:101A2000EC0092E39093ED0010925C0498E09093A8
:101A3000F00082FF22C093E09093E9009091F200C1
:101A4000992319F09AE39093E80090914504992323
:101A500041F090914504915090934504911101C03B
:101A60005D9A90915B04992341F090915B049150B1
:101A700090935B04911101C0289A84FF18C0809153
:101A8000E2008E7E81608093E2008091E1008F7E93
:101A90008093E100809144048E7E806180934404B1
:101AA0009F918F910F900FBE0F901F90189580FF00
:101AB000F7CF8091E2008E7E80618093E20080917A
:101AC000E1008E7E8093E100809144048E7E8160EF
:101AD000E5CF1F920F920FB60F921124CF92DF9293
:101AE000EF92FF920F931F932F933F934F935F9328
:101AF0006F937F938F939F93AF93BF93EF93FF93D6
:101B0000CF93DF93CDB7DEB76C97DEBFCDBF10921A
:101B1000E9008091E80083FF25C068E0CE0145968A
:101B20000E94730382EF8093E8008D8987FF39C09C
:101B30009091E80090FFFCCF982F907609F034C187
:101B40009E894F89588D2F89F88C911131C080382A
:101B500061F5809143048093F1001092F1008EEFC3
:101B60008093E8006C960FB6F894DEBF0FBECDBF31
:101B7000DF91CF91FF91EF91BF91AF919F918F91A5
:101B80007F916F915F914F913F912F911F910F9195
:101B9000FF90EF90DF90CF900F900FBE0F901F90AF
:101BA00018959EEF9093E800C7CF1092F100D5CF23
:101BB000913059F48111D3CF4130510581F6809194
:101BC00043048D7F80934304CACF933049F481113D
:101BD000C6CF4130510519F6809143048260F2CF9F
:101BE000953041F48091E80080FFFCCF206820937D
:101BF000E300B5CF963009F0A9C00B8D1C8D22E013
:101C00001092E9001092410410924004F2122EC08A
:101C100010923F0410923E040E9442031F8299E0FA
:101C20009983FA8291E09E8390EA98879AEF998748
:101C30002091400430914104275F3F4F3C832B8328
:101C40008D831092E9001092410410924004109389
:101C50003F0400933E0449E050E0BE016F5F7F4FB8
:101C600080E00E941C030E94420379CF10933F043E
:101C700000933E040E947101DC0112960D911C91AB
:101C80000115110509F451C1D801ED91FC910480B1
:101C9000F581E02DBE016B5E7F4FC801099500976D
:101CA00009F03EC1F80100851185EACFF3E0FF128B
:101CB0000EC08F89882309F440C0823061F440E867
:101CC0006BE085E291E00E94E902811148CF81E258
:101CD0008093EB0047CF813029F440E86BE089E145
:101CE00091E0F1CF833099F70E947101DC011296E7
:101CF000ED90FC908E010F5F1F4F6801E114F1041D
:101D000079F0D701ED91FC910680F781E02DB801C3
:101D1000C7010995080F111DF701E084F184EECF8A
:101D2000D8011C92F60101900020E9F73197BF011C
:101D30006C197D0940E0C601C6CF63E071E0FB018C
:101D4000449150E080E80E941C0309CF973009F4C9
:101D5000BECF983021F481E08093F10000CF99301C
:101D600009F0FDCE837009F0B2CFEBE5F1E081E040
:101D700031E096E32191222371F08093E9003093C2
:101D8000EB00DF0111972C912093EC009093ED0074
:101D90008F5F873079F78EE78093EA001092EA0030
:101DA0008F8980935C04DBCE8B8D9C8D1092E90033
:101DB000109241041092400490933F0480933E049B
:101DC000898D811192C08E899D89913A49F4813221
:101DD00009F07DCF47E050E064E471E080E0B3CFEC
:101DE000913209F074CF833269F48F89988DB0E015
:101DF000A0E08093400190934101A0934201B093F1
:101E00004301ADCE803269F48091E80082FFFCCFBF
:101E100067E084E491E00E9473038BEF8093E80015
:101E20009ECE823209F09BCE8F8980934B01EEEFDC
:101E3000FFE7859194918B3F9C4D51F1E0E0F8E0F4
:101E40008091440190914501A0914601B0914701D4
:101E5000803B9440A105B105F1F480914B0180FDD8
:101E60001AC0EE3F8AE0F80789F587E797E7918384
:101E70008083809160008093420488E19BE00FB6EC
:101E8000F894A895809360000FBE9093600067CE91
:101E9000EEEFFAE0D5CF808191818737974709F03F
:101EA0005ECEA895809160008861809360008091EB
:101EB000420480936000EE3F2AE0F20789F08091AF
:101EC000FE0A9091FF0A9183808349CE808191819F
:101ED0008737980751F29093FF0A8093FE0AC5CF87
:101EE0001092FF0A1092FE0A3ACE0E947101DC01A4
:101EF00012960D911C910115110509F4E8CED80137
:101F0000ED91FC910190F081E02DBE016B5E7F4F61
:101F1000C8010995811123CEF80100851185EBCF09
:101F2000181619060CF41BCED2CEF1E0FF12BECE6D
:101F300067E071E004CF1F920F920FB60F92112449
:101F40002F933F934F935F936F937F938F939F93C1
:101F5000AF93BF93EF93FF938091B900887F803652
:101F600009F44AC0F0F5883209F4A7C018F58031A9
:101F700009F49BC0B8F4882309F4F9C0883009F447
:101F800094C0FF91EF91BF91AF919F918F917F91FD
:101F90006F915F914F913F912F910F900FBE0F90D6
:101FA0001F901895883109F488C0803251F78093CA
:101FB000A80414C0803409F49DC040F48033B9F300
:101FC0008833F9F68093A80485ECB0C0803509F415
:101FD00085C0883509F496C0883499F60E945A0B5A
:101FE000D0CF883909F48CC038F5883729F050F4FF
:101FF000883611F0803729F683E08093AA04109286
:10200000270457C0883809F47BC0803919F080381C
:1020100009F0B7CF80912704803208F071C0E091B9
:10202000270481E08E0F809327048091BB00F0E0AD
:10203000E95FFB4F80833DC0803B39F0E0F4803A9C
:1020400009F479C0883A09F09CCF84E08093AA040F
:102050001092060410920504E0915F04F091600470
:1020600009958091050481110FC081E080930504DA
:102070001092E50309C0803C09F4A6CF883C09F41E
:10208000A3CF883B09F07DCFE091060481E08E0F5D
:1020900080930604F0E0EB51FC4F80818093BB00FD
:1020A000909106048091050429C080918504809355
:1020B000BB0085EC8093BC0064CF9091A704809115
:1020C000A604981758F5E091A70481E08E0F80933D
:1020D000A704F0E0EA57FB4F8081E9CFE091A70425
:1020E00081E08E0F8093A7048091BB00F0E0EA5757
:1020F000FB4F80839091A7048091A6049817C8F2A3
:1021000085E8D8CFE091A70481E08E0F8093A704E3
:102110008091BB00F0E0EA57FB4F80838091A904D7
:1021200081115CCF81E08093840484EA8093BC00B9
:102130001092AA0426CF85EC8093BC001092AA04CA
:1021400080912704803230F4E0912704F0E0E95FC9
:10215000FB4F10826091270470E0E0915D04F091E4
:102160005E0487E094E00995109227040ACF10924C
:10217000A80434CFE4EDF4E01382128288EE93E0F9
:10218000A0E0B0E084839583A683B78325E631E0A1
:10219000318320832FEF3FEF35872487E4E2F5E09A
:1021A0001382128284839583A683B78387E791E0A5
:1021B00091838083E0E9F5E01382128289E891E05F
:1021C0009183808387E2848380E1818782E08287B4
:1021D00013868AE895E00E940E0184E895E00E944B
:1021E0000E0167E272E08AE595E00E947F0A6AE2EA
:1021F00072E080E695E00E947F0A6DE272E086E67A
:1022000095E00E947F0A60E372E08CE695E00E9410
:102210007F0A63E372E082E795E00E947F0A66E34B
:1022200072E088E795E00E947F0A69E372E08EE73A
:1022300095E00E947F0A6CE372E080E395E00E94E3
:102240007F0A64E472E086E395E00E947F0A6BE413
:1022500072E08CE395E00E947F0A64E572E082E41C
:1022600095E00E947F0A6DE572E088E495E00E94A7
:102270007F0A68E672E08EE495E00E947F0A60E7DC
:1022800072E084E595E00C947F0ACF93DF93CDB79D
:10229000DEB767970FB6F894DEBF0FBECDBF789458
:1022A00084B5826084BD84B5816084BD85B582605B
:1022B00085BD85B5816085BD80916E00816080930C
:1022C0006E00109281008091810082608093810075
:1022D0008091810081608093810080918000816085
:1022E0008093800080919100826080939100809122
:1022F0009100816080939100809190008160809333
:1023000090008091C10084608093C1008091C100E1
:1023100082608093C1008091C10081608093C10080
:102320008091C30081608093C3008091C00082606F
:102330008093C0008091C20081608093C200809130
:102340007A00846080937A0080917A008260809322
:102350007A0080917A00816080937A0080917A007F
:10236000806880937A0010925C041092430410926B
:1023700044048091D70081608093D70080EA8093E5
:10238000D80089B5806189BD89B5826089BD09B4ED
:1023900000FEFDCF61E070E080E090E00E948902E5
:1023A0008091D8008F7C80618093D8008091E0007C
:1023B000807F8093E0008091E1008E7E8093E10039
:1023C0008DE08093E200559A209A0E9406058FEFD7
:1023D0009FEF9093E1048093E00488E792E00E94ED
:1023E000D30986E992E00E94D30960E082E00E946E
:1023F000280260E083E00E94280262E084E00E94FC
:10240000280261E085E00E94280262E086E00E94E6
:10241000280261E087E00E94280261E088E00E94D3
:10242000280261E08CE00E9428020E94E6090E94D6
:1024300006051092950580919A05823018F098E073
:10244000909395058093980562E370E080E090E0BA
:102450000E94890260919B0580E995E00E947A07BD
:1024600068EE73E080E090E00E94890260E380E91A
:1024700095E00E9400090BE416E4C8010197F1F70A
:1024800060E380E995E00E940009C8010197F1F737
:1024900060E380E995E00E94000983E592E00197FE
:1024A000F1F760E280E995E00E94000980919505CE
:1024B00080620E94190984E0809396058CE00E9456
:1024C00019090E94590982E08093970586E00E94CD
:1024D000190982E00E9419098BE39FE10197F1F746
:1024E000809197058E7F8093970584600E941909DB
:1024F00068E371E080E00E94780960E371E081E0C8
:102500000E94780968E271E082E00E94780960E246
:1025100071E083E00E94780968E171E084E00E9444
:10252000780960E171E085E00E94780968E071E077
:1025300086E00E94780960E071E087E00E947809F7
:1025400088E080939B0560E080E995E00E947A072F
:102550000E94060581E08093B00488E68093D2044F
:102560001092B1041092D3040E943E05882379F0A2
:102570006CEA72E0CE0101960E947F0A61E0CE0112
:1025800001960E94BB0ACE0101960E94BC094BE055
:1025900050E065EB70E0CE0101960E94C316CE01BB
:1025A0000A960E9491078C87E981E154E33120F576
:1025B0000E2E000CFF0BE152FD4E0C9473173215DA
:1025C000FC12FC124615FC123015FC12FC12FC1217
:1025D000F212FC12FC12391544154215FC12FC12C1
:1025E000FC1240158A81813609F436C28B818E3601
:1025F00009F434C287E08D87CE0105960E949107C9
:102600008E8748E050E06CEA70E0CE0101960E94AF
:10261000C316CE0101960E9491078F87CE010496C2
:102620000E949107888BCE0107960E949107898BA3
:10263000CE010C960E9471080E94530890E0880F0A
:10264000892F881F990B892B09F4C5C06AEB72E0AA
:10265000CE0101960E947F0A60E0CE0101960E94A1
:10266000BB0ACE0101960E94BC098CEF9FEF9093AC
:102670003D0480933C040E94590960E080E00E9480
:102680002A0969EC72E080E995E00E947D0A61E028
:1026900080E00E942A0967E080E995E00E946109D4
:1026A00061E083E00E942A0963ED72E080E995E031
:1026B0000E947D0A10E000E00E940E088230910521
:1026C00009F4E6C18330910509F4EFC1019771F473
:1026D000F801EE0FFF1F81E090E08C0F9D1FE80FC7
:1026E000F91F818992890197928B818B03301105A3
:1026F00019F70E94590960E080E00E942A096AEDFA
:1027000072E080E995E00E947D0A61E080E00E942D
:102710002A0966E080E995E00E94610961E084E0B1
:102720000E942A0964EE72E080E995E00E947D0A29
:1027300010E000E00E940E088230910509F4B8C153
:102740008330910509F4C1C1019771F4F801EE0FCE
:10275000FF1F81E090E08C0F9D1FE80FF91F83851C
:1027600094850197948783870330110519F7288989
:102770003E854C855A896C898E899F89803DE7E02A
:102780009E0710F0805D974089836A835B834C834A
:102790003D832E83CE0101960E9471080E94590943
:1027A00060E080E00E942A096BEE72E080E995E02B
:1027B0000E947D0A61E080E00E942A0964EA73E0D9
:1027C00080E995E00E947D0A10923D0410923C043D
:1027D00081E080932B0410922904109228048BEF3F
:1027E00092E00E94D30905E010E061E085E00E94DC
:1027F000FA0161E087E00E94FA016EE170E080E09A
:1028000090E00E94890260E085E00E94FA0160E0A9
:1028100087E00E94FA0160E570E080E090E00E94AD
:1028200089020150110909F760E080E00E942A093D
:1028300063E173E080E995E00E947D0A60E08FE04B
:102840000E942A0960E080E995E00E94610961E048
:1028500080E00E942A0960E273E080E995E00E942E
:102860007D0A68EE73E080E090E00E94890281E0DA
:1028700080932B0411E008E6A0EAEA2EA5E0FA2EE8
:10288000B0E0AB2EB0E0BB2E8EEFC82EDD24DA9484
:1028900088248394912C1093B0040093D204109256
:1028A000B1041092D30460E084E295E00E944B07EB
:1028B0000E943E0567E088E60E94250610926204A9
:1028C0008093610484E295E00E9404078F77282FAB
:1028D00030E044E0359527954A95E1F7922F990F1E
:1028E000990F722E791A770C780E84E295E00E9487
:1028F00004079C0154E0359527955A95E1F72F7010
:102900003327922F990F990F622E691A660C680E61
:1029100084E295E00E9404079C0164E035952795C8
:102920006A95E1F72F703327922F990F990F522E46
:10293000591A550C580E84E295E00E94040784E26F
:1029400095E00E9404079C0174E0359527957A95DF
:10295000E1F72F703327922F990F990F422E491AC2
:10296000440C480E84E295E00E9404079C01E4E0D8
:1029700035952795EA95E1F72F703327922F990F18
:10298000990F322E391A330C380E84E295E00E94EA
:1029900004079C01F4E035952795FA95E1F72F702F
:1029A0003327922F990F990F291B220F820F8093A3
:1029B0008A0530928B0540928C0550928D0560926D
:1029C0008E0570928F0580913C0490913D04009794
:1029D000C9F48AE895E00E94CA072B013C0184E80B
:1029E00095E00E94CA07461657066806790609F45C
:1029F0000CC10E94920B80913C0490913D04009781
:102A000009F403C1813091053CF0883091050CF444
:102A10005FC00A970CF468C00E940E0820913C0425
:102A200030913D042115310509F482C037FD04C001
:102A3000283031050CF49FC086E0EAE8F5E0A4E810
:102A4000B5E001900D928A95E1F7A114B10409F463
:102A500022CF0E9400001FCF81E0CDCD86E0CBCDFC
:102A600082E0C9CD8B81823711F088E0C4CD84E04B
:102A7000C2CD8B81823711F085E0BDCD83E0BBCD27
:102A800089E0B9CD8AE0B7CD8BE0B5CD8CE0B3CD90
:102A9000F801EE0FFF1F81E090E08C0F9D1FE80F03
:102AA000F91F8189928901961FCE0F5F1F4F1ECE9D
:102AB000F801EE0FFF1F81E090E08C0F9D1FE80FE3
:102AC000F91F8385948501964DCE0F5F1F4F4CCE25
:102AD000880F991FFC01E25DFB4F808191819093EB
:102AE0002D0480932C0498CF10922D0410922C0466
:102AF00093CF61E0872D0E942A0963E080E995E089
:102B00000E94610966E970E080E090E00E9489021D
:102B10007394ADC01093830461E087E00E94FA01D2
:102B20008FE793E000C180E007C182EB93E00FC123
:102B30008230910591F08330910591F0019709F071
:102B40007BCF60E087E00E94FA0110929B0560E075
:102B500080E995E00E947A076FCF0E9443086CCF0E
:102B60000E94430890923D0480923C0410932B04F1
:102B70000E94920B61CF82309105F1F08330910574
:102B800041F1019709F058CF80912A04882369F018
:102B900080912C0490912D040197B7010E943D175C
:102BA00090932D0480932C04E3CF2150310930936E
:102BB0003D0420933C04DCCF80912A04882331F02B
:102BC00080912C0490912D040196E7CF2F5F3F4F09
:102BD000EECF80912A04220F331F225D3B4F8823C2
:102BE00051F080912C0490912D04F9019183808300
:102BF00010922A04BDCFF9018081918190932D0418
:102C000080932C0410932A04B3CF86E00E94D10154
:102C1000892B09F401CFD0923D04C0923C040E945C
:102C2000590960E080E00E942A09809183046CE2E7
:102C300073E0811102C069E373E080E995E00E94CE
:102C40007D0A61E080E00E942A0963E473E080E984
:102C500095E00E947D0A61E08FE00E942A0965E408
:102C600073E080E995E00E947D0A7724739486E002
:102C70000E94D101892B09F456CFFFE07F1239CF92
:102C800086E00E94D1010E94590960E080E00E9424
:102C90002A098091830467E473E0811102C061E531
:102CA00073E080E995E00E947D0A61E080E00E9487
:102CB0002A0968E573E080E995E00E947D0AD092D8
:102CC0003D04C0923C0424E0622E712C61E085E05A
:102CD0000E94FA0161E087E00E94FA016EE170E073
:102CE00080E090E00E94890260E085E00E94FA01A5
:102CF00060E087E00E94FA0160E570E080E090E02B
:102D00000E94890271E0671A710801F780918304BB
:102D1000882309F4FFCE1092830460E087E00E94CC
:102D2000FA0184E693E00E94D3096CEB72E080E044
:102D300090E00E94890281E010923D0410923C04D0
:102D400010932B04882309F4F0CE87E993E00E94C6
:102D5000D30962CECF93DF93CAE5D5E02697CE01A3
:102D60000E94BC0985E0C033D807C1F7C4E8D5E0AC
:102D70002697CE010E94BC0985E0CA35D807C1F765
:102D8000DF91CF910895FB01DC0102C005900D9207
:102D900041505040D8F708950E940E17A59F900DFE
:102DA000B49F900DA49F800D911D112408952F9222
:102DB0003F924F925F926F927F928F929F92AF92CB
:102DC000BF92CF92DF92EF92FF920F931F93CF9318
:102DD000DF93CDB7DEB7CA1BDB0B0FB6F894DEBFAF
:102DE0000FBECDBF09942A88398848885F846E84D5
:102DF0007D848C849B84AA84B984C884DF80EE801F
:102E0000FD800C811B81AA81B981CE0FD11D0FB627
:102E1000F894DEBF0FBECDBFED010895A29FB001B3
:102E2000B39FC001A39F700D811D1124911DB29FFE
:102E3000700D811D1124911D0895991B79E004C026
:102E4000991F961708F0961B881F7A95C9F78095E9
:102E50000895AA1BBB1B51E107C0AA1FBB1FA617E1
:102E6000B70710F0A61BB70B881F991F5A95A9F733
:102E700080959095BC01CD01089597FB072E16F41F
:102E8000009407D077FD09D00E94291707FC05D0D0
:102E90003EF4909581959F4F0895709561957F4F71
:102EA0000895A1E21A2EAA1BBB1BFD010DC0AA1F8B
:102EB000BB1FEE1FFF1FA217B307E407F50720F0A3
:102EC000A21BB30BE40BF50B661F771F881F991F1E
:102ED0001A9469F760957095809590959B01AC0167
:102EE000BD01CF010895EE0FFF1F0590F491E02D75
:102EF00009940F931F93CF93DF938230910510F4C1
:102F000082E090E0E0919E05F0919F0530E020E0A6
:102F1000B0E0A0E0309799F42115310509F44AC0DA
:102F2000281B390B24303105D8F58A819B81611526
:102F3000710589F1FB0193838283FE0111C04081F9
:102F400051810281138148175907E0F0481759074A
:102F500099F4109761F012960C93129713961C93A4
:102F60003296CF01DF91CF911F910F910895009379
:102F70009E0510939F05F4CF2115310551F042179E
:102F8000530738F0A901DB019A01BD01DF01F80107
:102F9000C1CFEF01F9CF90939F0580939E05CDCFD0
:102FA000FE01E20FF31F819391932250310939837F
:102FB0002883D7CF20919C0530919D05232B41F488
:102FC00020914E0130914F0130939D0520939C0537
:102FD00020914C0130914D012115310541F42DB75F
:102FE0003EB74091500150915101241B350BE091A7
:102FF0009C05F0919D05E217F307A0F42E1B3F0BF3
:103000002817390778F0AC014E5F5F4F241735075A
:1030100048F04E0F5F1F50939D0540939C05819390
:1030200091939FCFF0E0E0E09CCFCF93DF930097A8
:10303000E9F0FC01329713821282A0919E05B091B3
:103040009F05ED0130E020E01097A1F4208131814F
:10305000820F931F20919C0530919D0528173907F9
:1030600009F061C0F0939D05E0939C05DF91CF913D
:103070000895EA01CE17DF07E8F54A815B819E01DA
:1030800041155105B1F7E901FB83EA834991599153
:10309000C40FD51FEC17FD0761F480819181029662
:1030A000840F951FE90199838883828193819B8393
:1030B0008A83F0E0E0E012968D919C91139700973F
:1030C000B9F52D913C911197CD010296820F931F76
:1030D00020919C0530919D052817390739F63097C6
:1030E00051F510929F0510929E05B0939D05A093F7
:1030F0009C05BCCFD383C28340815181840F951F2F
:10310000C817D90761F44E5F5F4F88819981480FD6
:10311000591F518340838A819B8193838283211528
:10312000310509F0B0CFF0939F05E0939E059ECF47
:10313000FD01DC01C0CF13821282D7CFB0E0A0E046
:10314000E4EAF8E10C94D9168C01009751F4CB0114
:103150000E9479178C01C801CDB7DEB7E0E10C946D
:10316000F516FC01E60FF71F9C0122503109E2170A
:10317000F30708F49DC0D901CD91DC911197C617D2
:10318000D70798F0C530D10530F3CE0104978617E4
:10319000970708F3C61BD70B2297C193D1936D9362
:1031A0007C93CF010E941518D6CF5B01AC1ABD0AE3
:1031B0004C018C0E9D1EA0919E05B0919F05512C37
:1031C000412CF12CE12C109731F580919C059091C8
:1031D0009D058815990509F05CC04616570608F04C
:1031E00058C080914C0190914D01009741F48DB7EA
:1031F0009EB74091500150915101841B950BE817E7
:10320000F90708F055C0F0939D05E0939C05F9017E
:1032100071836083A0CF8D919C91119712966C90D1
:10322000129713967C901397A815B90559F56C0160
:1032300042E0C40ED11CCA14DB0420F1AC014A19CF
:103240005B09DA011296159780F0628273825183CE
:103250004083D9016D937C93E114F10471F0D7019F
:103260001396FC93EE93129776CF22968C0F9D1FA8
:10327000F90191838083F301EFCFF0939F05E093F1
:103280009E0569CF4816590608F42C017D01D3012B
:103290009ACFCB010E9479177C01009749F0AE01CB
:1032A000B8010E945B19C8010E941518870153CF0D
:1032B00010E000E050CFFB01DC0102C001900D9254
:1032C00041505040D8F70895FB01DC0101900D9268
:1032D0000020E1F70895AEE0B0E0E1E7F9E10C94F9
:1032E000E5160D891E8986E08C831A8309838FEF8A
:1032F0009FE79E838D83AE01475E5F4F6F89788D18
:10330000CE0101960E948E192F813885020F131F5E
:10331000F80110822E96E4E00C940117ABE0B0E0C7
:10332000E4E9F9E10C94D7167C013B018A01FC0128
:1033300017821682838181FFC8C1CE0101965C018C
:10334000F7019381F30193FD859193FF81913F01F3
:10335000882309F453C1853239F493FD859193FF95
:1033600081913F01853229F4B70190E00E947E1BD4
:10337000E7CF912C212C312CFFE1F31538F08B3263
:1033800011F190F4803209F1833229F137FC3CC00D
:1033900020ED280F2A3050F536FE20C08AE0989E96
:1033A000200D1124922E06C08D3291F0803371F7DA
:1033B000689430F8F30193FD859193FF81913F016B
:1033C0008111DACF21C0689431F8689432F8F2CFD5
:1033D000689433F8EFCF689434F8ECCFEAE02E9E8F
:1033E000200D1124222E689435F8E4CF8E3229F472
:1033F00036FC04C1689436F8DDCF8C3619F4689435
:1034000037F8D8CF8836B1F2982F9F7D95549330F6
:10341000E0F08336A1F18337C1F1833509F063C051
:103420002801F2E04F0E511CF801C080D180692DB7
:1034300070E036FC02C06FEF7FEFC6010E94681B90
:103440004C01689437F882010AC00C5F1F4FFFE3FC
:10345000F98388248394912C6501E89437F833FE2E
:103460002DC0522C8114910471F5552009F468CFB8
:10347000B70180E290E00E947E1B5A94F6CFF801DB
:10348000808189830E5F1F4FE4CF2801F2E04F0E49
:10349000511CF801C080D180692D70E036FC02C05B
:1034A0006FEF7FEFC6010E94731B4C018201D5CFE5
:1034B000B70180E290E00E947E1B2A942814190430
:1034C00009F0B0F7CECFF60137FC859137FE819138
:1034D0006F01B70190E00E947E1B51105A94F1E0F9
:1034E0008F1A9108BFCF843619F0893609F077C05A
:1034F000F80137FE6BC060817181828193810C5F1E
:103500001F4FF32DFF763F2E97FF09C090958095B2
:10351000709561957F4F8F4F9F4F689437F82AE0E1
:1035200030E0A5010E94AE1BC82ECA188C2C432C7B
:1035300036FE0CC0E89440F8C91440F434FE05C0CF
:1035400032FC03C0F32DFE7E4F2E892C44FE95C025
:10355000FE01EC0DF11D8081803309F087C0242D20
:10356000297E422E842D8870582E43FC95C040FE43
:103570008FC09C2C821418F42C0C922C981844FEAA
:1035800091C0B70180E390E00E947E1B42FE09C01B
:1035900088E790E041FE02C088E590E0B7010E9414
:1035A0007E1BC91408F48AC0CA94D12C9FEFC91A93
:1035B000D90ACA0CDB1CF60182916F01B70190E0B9
:1035C0000E947E1BAC14BD04B1F74FCF60817181A6
:1035D000072E000C880B990B0E5F1F4F92CFD32C38
:1035E000E894D4F82AE030E0853739F1232D297F9B
:1035F000D22E8F3601F148F48835A9F0F701868183
:1036000097812B96E2E10C94F316803749F08837C6
:10361000A9F7D4FE02C06894D2F820E130E00DC0D2
:103620006894D4F8F6CF34FE03C0822F8660D82E7B
:1036300020E132E002C028E030E0F801D7FE0FC000
:1036400060817181828193810C5F1F4FA5010E946F
:10365000AE1BC82ECA183D2CE89437F867CF60819E
:10366000718190E080E00E5F1F4FF0CF42FC02C0FE
:10367000839478CF8394839475CF842D867809F4CE
:1036800071CFF6CFB70180E290E00E947E1B839459
:103690008214C0F3512C73CF522C5818821408F4A2
:1036A0006ECFF8CF842D867809F47BCF8BE241FE74
:1036B00080E247FC8DE2B70190E071CFB70180E373
:1036C00090E00E947E1B9A946CCF8FEF9FEF99CF72
:1036D000FC010590615070400110D8F780959095DD
:1036E0008E0F9F1F0895FC016150704001900110E2
:1036F000D8F7809590958E0F9F1F08950F931F9375
:10370000CF93DF93182F092FEB018B8181FD09C027
:103710001FEF0FEF812F902FDF91CF911F910F910E
:10372000089582FF14C02E813F818C819D812817CE
:1037300039073CF4E881F981CF01019699838883A8
:1037400010838E819F8101969F838E83E3CFE885CE
:10375000F985812F0995892BA1F3DACFFA01AA27E0
:10376000283051F1203181F1E8946F936E7F6E5FC4
:103770007F4F8F4F9F4FAF4FB1E03ED0B4E03CD072
:10378000670F781F891F9A1FA11D680F791F8A1F55
:10379000911DA11D6A0F711D811D911DA11D20D0BC
:1037A00009F468943F912AE0269F11243019305D76
:1037B0003193DEF6CF010895462F4770405D419367
:1037C000B3E00FD0C9F7F6CF462F4F70405D4A33B4
:1037D00018F0495D31FD4052419302D0A9F7EACF7C
:1037E000B4E0A6959795879577956795BA95C9F7AB
:1037F00000976105710508959B01AC010A2E06949E
:103800005795479537952795BA95C9F7620F731F56
:10381000841F951FA01D089510E0C3EED0E004C0E2
:10382000FE010E9473172196C43ED107C9F7F89490
:02383000FFCFC8
:10383200000A1F1F11111F00000E1517110E0000A4
:10384200000101050D1F0C04001C0C1511110E00C6
:103852000C1E171B1B1D0F06000A040A000F0F0E79
:10386200010A0400000F0F0E0A1F0E04000F0F0EB4
:10387200FFFFFFFF00E10000000000000000A005C4
:103882008000000040001400540000C1808100004C
:1038920000000000004004BB0361045604A7046555
:1038A200048304000000004B071E078E07F406176E
:1038B200070407F5060000000061098E038E078DDC
:1038C200070D0A005B494E464F5D2052656C6169E7
:1038D20073207475726E6564206F6666210045728E
:1038E200726F7221005B4552524F525D20005B495C
:1038F2004E464F5D2055706461746564206469733F
:10390200706C61792077697468206D656E75537487
:10391200617465203D200020616E6420636C6561E6
:1039220072666C6167203D2000253032753A253081
:1039320032753A2530327500253032752F253032F6
:10394200752F25303475003E20203A20203C00207F
:1039520020203A20202000536F004D6F0044690060
:103962004D6900446F00467200536100536F6E6EE2
:10397200746167004D6F6E746167004469656E73B0
:10398200746167004D697474776F636800446F6E89
:103992006E6572737461670046726569746167006F
:1039A20053616D737461670041726F6D6174726F00
:1039B2006E2044656275672053657269616C2042AE
:1039C2006567696E3A005B494E464F5D20536574E8
:1039D200757020737461727465642E0052544320B2
:1039E2004E4F5420464F554E4400525443204C4FA4
:1039F200535420504F57455200536574204461740C
:103A0200653A00202F20202F20005365742054692E
:103A12006D653A00203A20203A200054696D652FE6
:103A220044617465207265736574005B494E464F4C
:103A32005D20536574757020636F6D706C6574657D
:103A4200642E0041726F6D6174726F6E2076310068
:103A52006279204C656F204B65696C004469736123
:103A6200726D696E672E2E2E0041726D696E672E21
:103A72002E2E005B005D0044697361726D696E6792
:103A82000041726D696E6700737563636573736677
:103A9200756C21005B494E464F5D2041726F6D612E
:103AA20074726F6E2064697361726D656421005B6C
:103AB200494E464F5D2041726F6D6174726F6E2088
:103AC20061726D656421005B494E464F5D20417213
:103AD2006D6564207375636365737366756C6C7969
:103AE20021005B494E464F5D2044697361726D65EA
:103AF20064207375636365737366756C6C792100FA
:00000001FF
