:100000000C94E3000C940B010C940B010C940B0169
:100010000C940B010C940B010C940B010C940B0130
:100020000C940B010C940B010C94870A0C94F60AA7
:100030000C940B010C940B010C940B010C940B0110
:100040000C940B010C940B010C940B010C940B0100
:100050000C940B010C940B010C940B010C943D0AB5
:100060000C940B010C940B010C940B010C940B01E0
:100070000C940B010C940B010C940B010C940B01D0
:100080000C940B010C940B010C940B010C940B01C0
:100090000C94280D0C940B010C940B010C940B0187
:1000A0000C940B010C940B010C940B0132303A3080
:1000B000353A3234004A616E2020352032303231F8
:1000C00000080B0002020200000904000001020205
:1000D000000005240010010524010101042402068A
:1000E00005240600010705810310004009040100F2
:1000F000020A000000070502024000000705830213
:100100004000000403090412010002EF0201404113
:1001100023418000010102030141726475696E6F21
:10012000204C4C430041726475696E6F2059756EA6
:100130000000000000240027002A002D00300000ED
:10014000000000250028002B002E003100000000D8
:10015000002300260029002C002F000404040404BE
:10016000030405020202020403020202020606065A
:1001700006060604040202020404040802011040F8
:100180008040102040804080080204018040201000
:100190000201108010204040200000000200090FE2
:1001A0000000030401000C0000000000000000003B
:1001B00000000000000000001F1C1F1E1F1E1F1F4C
:1001C0001E1F1E00470E11241FBECFEFDAE0DEBF58
:1001D000CDBF24E0A2E1B3E001C01D92A339B20774
:1001E000E1F713E0A0E0B1E0E4E6F1E302C005903E
:1001F0000D92A231B107D9F710E0C3EED0E004C0F0
:100200002197FE010E941714C23ED107C9F70E9430
:10021000A60E0C94B0180C940000DC0115961C92EC
:10022000159714961C92149713961C9213971C9270
:1002300081E011968C93119711968C9111978C30C7
:1002400070F4282F2150330BF901E854FE4FE4914C
:10025000823009F4EF5FE11102C08F5FEACF81E0E5
:1002600012968C93089508950895FC0180917A0365
:10027000882311F13FB7F89482E08093E900209140
:10028000F200822F90E01816190614F481E090E035
:10029000882339F0289844E6409379034091F1008F
:1002A0004083222339F02091F200211103C02BE674
:1002B0002093E8003FBF08958FEF9FEF08952FB779
:1002C000F89483E08093E9009091E800892F807290
:1002D00095FF04C09091F20080E4891B2FBF089520
:1002E0008091710381110DC082E080936D0384E0E1
:1002F00080936E031092700310926F0381E08093DD
:1003000071038DE693E0089581508F3008F047C067
:10031000E82FF0E0E257FE4F0C941714AB01AF0149
:100320009D01A301A701CF01CF01CF01B201B80107
:10033000BC01C001C601CF01CA01809180008F7746
:10034000809380000895809180008F7DF9CF809107
:100350008000877FF5CF84B58F7784BD089584B5FD
:100360008F7DFBCF809190008F77809390000895D0
:10037000809190008F7DF9CF80919000877FF5CF9D
:100380008091C0008F778093C00008958091C00055
:100390008F7DF9CF8091C200877F8093C20008953E
:1003A000CF93DF93282F30E0F901E756FE4F849179
:1003B000F901E658FE4FD491F901E55AFE4FC49178
:1003C000CC23A1F081110E948401EC2FF0E0EE0F0C
:1003D000FF1FE35BFE4FA591B491EC91ED2381E00B
:1003E00090E009F480E0DF91CF91089580E090E003
:1003F000FACF1F93CF93DF93282F30E0F901E75610
:10040000FE4F8491F901E658FE4FD491F901E55A67
:10041000FE4FC491CC23A9F0162F81110E948401B4
:10042000EC2FF0E0EE0FFF1FE15CFE4FA591B491C1
:100430008FB7F894EC91111108C0D095DE23DC93AE
:100440008FBFDF91CF911F910895DE2BF8CFCF930F
:10045000DF9390E0FC01E658FE4F2491855A9E4FB1
:10046000FC0184918823C9F090E0880F991FFC015A
:10047000EF5CFE4FA591B491FC01E15CFE4FC5918C
:10048000D49161110DC09FB7F8948C91209582236F
:100490008C938881282328839FBFDF91CF91089573
:1004A000623051F49FB7F8943C91822F809583235A
:1004B0008C93E8812E2BEFCF8FB7F894EC912E2BF5
:1004C0002C938FBFEACF3FB7F89480916903909146
:1004D0006A03A0916B03B0916C0326B5A89B05C07D
:1004E0002F3F19F00196A11DB11D3FBFBA2FA92FB3
:1004F000982F8827BC01CD01620F711D811D911DB0
:1005000042E0660F771F881F991F4A95D1F708951B
:100510008F929F92AF92BF92CF92DF92EF92FF9213
:100520004B015C010E9463026B017C010E9463022B
:100530006C197D098E099F09683E734081059105FC
:10054000A8F321E0821A9108A108B10888EEC80E2C
:1005500083E0D81EE11CF11C81149104A104B104B4
:1005600029F7FF90EF90DF90CF90BF90AF909F90D2
:100570008F90089540915E0350915F0320915C033A
:1005800030915D0342175307B4F49091E8009570E1
:10059000E1F39091E80092FD19C08093F100809101
:1005A0005E0390915F0301968F739927892B19F44D
:1005B0008EEF8093E80080915E0390915F03019637
:1005C00090935F0380935E0381E0089580E0089537
:1005D000EF92FF920F931F93CF93DF93F82E192F73
:1005E000E62E042F81E0860F880F0E94BA0283E076
:1005F0000E94BA02CF2DD12FEC0EFD2EF11CCE158C
:10060000DF05B9F007FF13C0FE0184910E94BA0212
:10061000182F80E00E94BA02812321968111EFCF2A
:10062000DF91CF911F910F91FF90EF9008958881F6
:10063000EDCF81E0F5CFDF92EF92FF920F931F9302
:10064000CF93DF93D82E8A01EB017B01E40EF51ED8
:10065000CE15DF0559F0D7FE12C0FE0184910E942D
:10066000BA0221968111F4CF0FEF1FEFC801DF917D
:10067000CF911F910F91FF90EF90DF9008958881A7
:10068000EECF0F931F93CF93DF931F92CDB7DEB7BB
:1006900082E0898342E450E061EC70E080E80E94EF
:1006A0001B030E947001DC0112960D911C91011533
:1006B000110589F0D801ED91FC910280F381E02DC4
:1006C000BE016F5F7F4FC801099597FD04C0F80117
:1006D00000851185ECCF89810F90DF91CF911F911B
:1006E0000F910895615030F02091F100FC012083BA
:1006F0000196F8CF289884E6809379030895AF9205
:10070000BF92CF92DF92EF92FF920F931F93CF93FE
:10071000DF936C017B018B01040F151FEB015E0160
:10072000AE18BF08C017D10759F06991D601ED91F5
:10073000FC910190F081E02DC6010995892B79F794
:10074000C501DF91CF911F910F91FF90EF90DF9046
:10075000CF90BF90AF9008958F929F92AF92BF922B
:10076000CF92DF92EF92FF920F931F93CF93DF937D
:100770006C017B018A0180915901882309F45CC0D6
:1007800080917A03882309F457C08091620380FF27
:1007900005C08091E00082608093E000E801B12C08
:1007A0008AEFA82E93E0892E2AE3922E209711F447
:1007B000BB20D9F10E945F0181110AC0AA94AA202E
:1007C000D9F161E070E080E090E00E948802EECF15
:1007D0008C171D0611F00CF08C2F9FB7F8948092A7
:1007E000E9002091E80025FD02C09FBFDFCF282F40
:1007F00030E0C21BD30BF701815020F041914093B0
:10080000F100FACFE20EF31EBB2021F09092E80037
:10081000B12CEBCF8091E80085FDE7CF9092E80006
:10082000BB24B394209709F3F3CF5D9884E68093BB
:100830006303101611063CF081E090E0F60193830B
:10084000828310E000E0C801DF91CF911F910F91EA
:10085000FF90EF90DF90CF90BF90AF909F908F90E0
:100860000895CF93DF931F92CDB7DEB76983DC0184
:10087000ED91FC910280F381E02D41E050E0BE015A
:100880006F5F7F4F09950F90DF91CF91089583E0BF
:100890008093E9008091F200882319F08AE3809325
:1008A000E80008950E945F0190E00895CF93DF93E0
:1008B0001F92CDB7DEB7FC018485958597FD08C0F2
:1008C0002FEF3FEF358724870F90DF91CF91089569
:1008D000CE0101960E943501019719F4898190E0BB
:1008E000F3CF8FEF9FEFF0CF0F931F93CF93DF9353
:1008F0001F92CDB7DEB78C01FC018485958597FFEB
:100900000BC0CE0101960E943501019771F48981D7
:1009100090E0F80195878487F801848595850F908C
:10092000DF91CF911F910F9108958FEF9FEFF1CF3E
:10093000FC018485958597FD0BC09FB7F89482E0F4
:100940008093E9008091F2009FBF90E001960895A6
:100950009FB7F89482E08093E9008091F2009FBFF6
:1009600090E0089520913303260F3327331F21325F
:100970003105ECF42091C703FC0190E080E02430C5
:1009800069F082E00895A09133032191AC014D5E9E
:100990005C4FA40FB52FB11D2C930196861798F3C9
:1009A00080913303680F6093330380E0089581E002
:1009B00008951092C70381E08093C6031092A103AB
:1009C00061E082E00E94F90161E083E00E94F901A8
:1009D000E9EBF0E080818E7F808380818D7F808352
:1009E00088E48093B80085E48093BC000895109259
:1009F000800310927F031092CE031092F0030E94A6
:100A0000D90483E391E090937E0380937D0384E394
:100A100091E090937C0380937B030895CF93DF93C1
:100A200091E0909312038823B9F0C091B800D0915F
:100A3000BA008091BC008A7B8093BC0060E082E0B9
:100A40000E94F90160E083E00E94F9010E94D9044C
:100A5000D093BA00C093B800DF91CF910895CF92A0
:100A6000DF92EF92FF920F931F93CF93DF93D0917A
:100A7000F00381E0D13208F09CC0C091EF030E94E6
:100A800063026B017C018091C70381116CC082E01D
:100A90008093C70381E08093C6038FEF8093C503E3
:100AA0001092C403D093C303AFECB3E0E3EAF3E0E6
:100AB00080E0D8138DC01092A2038091A203CC0FC6
:100AC000C82BC093A2038091A103813009F084C098
:100AD0001092A1030E9463026B017C018091A2032A
:100AE0008093BB008091C9039091CA03A091CB036E
:100AF000B091CC03892B8A2B8B2BA1F00E9463022F
:100B00000091C9031091CA032091CB033091CC030B
:100B10006C197D098E099F090617170728073907E1
:100B200008F442C08091BC0083FDD8CF85EC80934F
:100B3000BC000E9463026B017C018091C70382307C
:100B400009F44CC08091C5038F3F09F469C08091BE
:100B5000C503803209F466C08091C503803309F46F
:100B600063C084E026C08091C9039091CA03A0911C
:100B7000CB03B091CC03892B8A2B8B2B09F483CF29
:100B80000E9463020091C9031091CA032091CB0314
:100B90003091CC036C197D098E099F090617170740
:100BA0002807390708F06FCF8091C8030E940E050F
:100BB00085E01092CE031092F0031092CD03DF91E6
:100BC000CF911F910F91FF90EF90DF90CF900895FC
:100BD0009D9191938F5F6DCF85EEA9CF8091C903D1
:100BE0009091CA03A091CB03B091CC03892B8A2B9F
:100BF0008B2B09F4A2CF0E9463020091C9031091CC
:100C0000CA032091CB033091CC036C197D098E0966
:100C10009F09061717072807390708F08ECFC4CF9A
:100C200080E0C7CF82E0C5CF83E0C3CFCF92DF9211
:100C3000EF92FF920F931F93CF93DF93D82FC62F7E
:100C4000613208F098C00E9463026B017C018091C0
:100C5000C70381116BC081E08093C7038093C603F3
:100C60009FEF9093C5031092C4039C0F9093C3030E
:100C70008093A2038091A203DD0FD82BD093A2030F
:100C80008091A103813009F078C01092A1030E94E5
:100C900063026B017C018091A2038093BB00809171
:100CA000C9039091CA03A091CB03B091CC03892BC7
:100CB0008A2B8B2BA1F00E9463020091C903109133
:100CC000CA032091CB033091CC036C197D098E09A6
:100CD0009F09061717072807390708F448C08091AD
:100CE000BC0083FDD8CF85EC8093BC000E946302DA
:100CF0006B017C018091C703813009F440C0809171
:100D0000C4038C1710F4C091C403E3EAF3E0A1E834
:100D1000B3E080E08C1355C08C2FDF91CF911F91F1
:100D20000F91FF90EF90DF90CF9008958091C903CD
:100D30009091CA03A091CB03B091CC03892B8A2B4D
:100D40008B2B09F484CF0E9463020091C903109198
:100D5000CA032091CB033091CC036C197D098E0915
:100D60009F09061717072807390708F070CF8091E9
:100D7000C8030E940E05C0E0CFCF85EEB5CF8091AD
:100D8000C9039091CA03A091CB03B091CC03892BE6
:100D90008A2B8B2B09F4AECF0E9463020091C9030A
:100DA0001091CA032091CB033091CC036C197D09BB
:100DB0008E099F09061717072807390708F09ACFE9
:100DC000D6CF91919D938F5FA5CF0895E091800339
:100DD00080917F03E81730F4F0E0EF57FC4F8081FB
:100DE00090E008958FEF9FEF089590918003809198
:100DF0007F032FEF3FEF981748F4E92FF0E0EF570C
:100E0000FC4F208130E09F5F90938003C9010895DB
:100E100080917F0390918003891B990B0895CF9255
:100E2000DF92EF92FF920F931F93CF93DF937C019A
:100E3000CB018A012091CD03222389F0EB016B01C4
:100E4000C40ED51ECC15DD0569F06991D701ED9171
:100E5000FC910190F081E02DC7010995F3CF642F3B
:100E60000E94B204C801DF91CF911F910F91FF90B2
:100E7000EF90DF90CF900895CF93DF931F92CDB77F
:100E8000DEB769832091CD032223F9F02091F0038E
:100E9000203258F021E030E0FC013383228390E0DF
:100EA00080E00F90DF91CF9108958091CE03E82FDD
:100EB000F0E0E153FC4F998190838F5F8093CE03E4
:100EC0008093F00381E090E0ECCF61E0CE010196E9
:100ED0000E94B204F7CFFC01248131E03093CD03AE
:100EE0002093EF031092CE031092F0038385682BBA
:100EF00081E494E00E943C070C942F05089590E053
:100F000080E00895FC01908190539A3008F090E0C1
:100F1000818180532AE0929F800D11240895DC0185
:100F200050E0E8EBF1E081E0861730F49491490F4E
:100F3000511D8F5F3196F8CF633038F0CD0183704B
:100F40009927892B11F44F5F5F4F9D012D5F3F4F14
:100F500036952795369527956DE671E0A69FC001D9
:100F6000A79F900DB69F900D11240197820F931F9C
:100F7000840F951F0895EF92FF920F931F93CF93C5
:100F8000DF93EC0188814A81698190E00E948F079C
:100F90009C01A8E1B0E00E94E8132B817B018C0149
:100FA000E20EF11C011D111DA8019701ACE3B0E098
:100FB0000E94A6132C817B018C01E20EF11C011D05
:100FC000111DA80197010E94A613AB01BC019D81D0
:100FD000892F90E0B0E0A0E080589C4BA249B74C2C
:100FE0008A019B01080F191F2A1F3B1FC901B80165
:100FF000DF91CF911F910F91FF90EF90089581E0C5
:101000008093CD0388E68093EF031092CE03109275
:10101000F0036FE081E494E00E943C070E942F05FA
:1010200061E088E60E9416061092800380937F0399
:1010300081E494E00E94F50608950F931F93CF93E7
:101040008C01C62F0E946B076C2F6460C8010E9440
:101050006B076C2F6B7FC8010E946B0783EC90E0DD
:101060000197F1F7CF911F910F9108950F931F935F
:10107000CF93DF938C01D62FC42F607F642B0E9407
:101080001D0880E1D89FB00111246C2BC801DF91AD
:10109000CF911F910F910C941D0841E00E943608DA
:1010A00081E090E0089540E0682F83E894E00C949C
:1010B0003608CF93DF93CDB7DEB728970FB6F894F5
:1010C000DEBF0FBECDBF98E0E0E6F1E0DE01119695
:1010D00001900D929A95E1F790918B04961708F480
:1010E0006FEF70E0660F771F21E030E02C0F3D1F9F
:1010F000620F731FFB019081890F806828960FB6DD
:10110000F894DEBF0FBECDBFDF91CF910C94530892
:1011100081E00E9453088BE39FE10197F1F7089566
:101120000F931F93CF93DF938B0128E0829FC00121
:10113000112480640E945308E801085F1F4F6991E1
:1011400083E894E00E944D08C017D107C1F7DF91F2
:10115000CF911F910F9108950F931F93CF93DF931A
:10116000EC0188819981009759F02A813B812617EB
:10117000370730F081E0DF91CF911F910F910895F3
:101180008B016F5F7F4F0E944215009759F0998342
:1011900088831B830A832C813D81232B59F7FC0113
:1011A0001082E8CF80E0E7CFFC0180819181009739
:1011B00011F00C94B9140895FB0101900020E9F797
:1011C0003197AF01461B570BDC01ED91FC9102807A
:1011D000F381E02D0994CF93DF93BC0181EF93E07D
:1011E0000E94DC08EC016FE971E081EF93E00E945E
:1011F000DC088C0F9D1FDF91CF91089561E08CE09A
:101200000E94F90160E088E00E94F90182EA91E021
:101210000C94EB08CF93DF93CDB7DEB7A1970FB651
:10122000F894DEBF0FBECDBF19A2805D88A3BE01BA
:10123000605E7F4F83E894E00E94DC08A1960FB6C1
:10124000F894DEBF0FBECDBFDF91CF910895BC01F2
:1012500083E894E00C94DC08EF92FF920F931F93C5
:10126000CF93DF93EC017B01198218821B821A82D3
:101270001D821C82FB0101900020E9F731978F014C
:10128000061B170BB8010E94AC0828813981811117
:1012900013C02115310519F0C9010E94B914198232
:1012A00018821D821C821B821A82DF91CF911F91AE
:1012B0000F91FF90EF9008951D830C83B701C90132
:1012C000DF91CF911F910F91FF90EF900C94081632
:1012D000DF92EF92FF920F931F93CF93DF9300D093
:1012E00000D000D0CDB7DEB78C01D62E8FEF9FEFA8
:1012F00090935B0380935A030E94FE080E94880823
:1013000082E00E9453088BE39FE10197F1F78CEB99
:1013100091E00E94270961E080E00E945908F801ED
:10132000448155816081718183E894E00E947F034C
:1013300063EC71E0CE0101960E942C09F801E08077
:10134000F180E114F104C1F1048115810115110549
:10135000B1F08D819E81080F191FB801CE01019651
:101360000E94AC08882341F129813A818D819E81B8
:10137000B701820F931F0E9408161E830D834D81B3
:101380005E8169817A8181EF93E00E94AC036FE90D
:1013900071E081EF93E00E94DC08CE0101960E948B
:1013A000D40860E08FE00E945908DD2091F084E0CD
:1013B00090E00E940A09FFCF89819A81009711F07D
:1013C0000E94B9141A8219821E821D821C821B82FD
:1013D000D6CF85E090E00E940A0968E873E180E0DA
:1013E00090E00E94880210925B0310925A032696A6
:1013F0000FB6F894DEBF0FBECDBFDF91CF911F9126
:101400000F91FF90EF90DF90089585ED8093BC00E1
:101410008091C9039091CA03A091CB03B091CC03F2
:101420000796A11DB11D23E0B695A79597958795C1
:101430002A95D1F72091BC0024FD03C01092C70368
:1014400008954091C9035091CA036091CB037091F4
:10145000CC03452B462B472B69F30097A105B1051B
:1014600041F025E32A95F1F700000197A109B109A0
:10147000E1CF8091C8030C940E051F920F920FB616
:101480000F9211242F933F938F939F93AF93BF930A
:101490008091650390916603A0916703B091680302
:1014A0003091640323E0230F2D3758F50196A11DD9
:1014B000B11D209364038093650390936603A0930A
:1014C0006703B09368038091690390916A03A091C8
:1014D0006B03B0916C030196A11DB11D809369034C
:1014E00090936A03A0936B03B0936C03BF91AF9189
:1014F0009F918F913F912F910F900FBE0F901F9052
:10150000189526E8230F0296A11DB11DD2CF1F9278
:101510000F920FB60F9211248F939F938091E10049
:101520009091E100937F9093E10083FF0FC01092B0
:10153000E90091E09093EB001092EC0092E390931D
:10154000ED0010927A0398E09093F00082FF22C0A1
:1015500093E09093E9009091F200992319F09AE3B7
:101560009093E80090916303992341F09091630375
:10157000915090936303911101C05D9A909179030A
:10158000992341F0909179039150909379039111AF
:1015900001C0289A84FF18C08091E2008E7E81608D
:1015A0008093E2008091E1008F7E8093E100809142
:1015B00062038E7E8061809362039F918F910F9072
:1015C0000FBE0F901F90189580FFF7CF8091E2001B
:1015D0008E7E80618093E2008091E1008E7E809318
:1015E000E100809162038E7E8160E5CF1F920F92B1
:1015F0000FB60F921124CF92DF92EF92FF920F93CA
:101600001F932F933F934F935F936F937F938F938A
:101610009F93AF93BF93EF93FF93CF93DF93CDB798
:10162000DEB76C97DEBFCDBF1092E9008091E80075
:1016300083FF25C068E0CE0145960E94720382EFC9
:101640008093E8008D8987FF39C09091E80090FF72
:10165000FCCF982F907609F034C19E894F89588D20
:101660002F89F88C911131C0803861F58091610328
:101670008093F1001092F1008EEF8093E8006C9659
:101680000FB6F894DEBF0FBECDBFDF91CF91FF91B3
:10169000EF91BF91AF919F918F917F916F915F91EA
:1016A0004F913F912F911F910F91FF90EF90DF90FD
:1016B000CF900F900FBE0F901F9018959EEF9093B4
:1016C000E800C7CF1092F100D5CF913059F48111C5
:1016D000D3CF4130510581F6809161038D7F809396
:1016E0006103CACF933049F48111C6CF413051050F
:1016F00019F6809161038260F2CF953041F48091B8
:10170000E80080FFFCCF20682093E300B5CF96303F
:1017100009F0A9C00B8D1C8D22E01092E9001092F7
:101720005F0310925E03F2122EC010925D031092BE
:101730005C030E9441031F8299E09983FA8291E041
:101740009E8390EA98879AEF998720915E03309163
:101750005F03275F3F4F3C832B838D831092E9000B
:1017600010925F0310925E0310935D0300935C037D
:1017700049E050E0BE016F5F7F4F80E00E941B0395
:101780000E94410379CF10935D0300935C030E9494
:101790007001DC0112960D911C910115110509F4DF
:1017A00051C1D801ED91FC910480F581E02DBE017D
:1017B0006B5E7F4FC8010995009709F03EC1F801A3
:1017C00000851185EACFF3E0FF120EC08F898823D0
:1017D00009F440C0823061F440E86BE085E291E0BA
:1017E0000E94E802811148CF81E28093EB0047CF4D
:1017F000813029F440E86BE089E191E0F1CF83305A
:1018000099F70E947001DC011296ED90FC908E0118
:101810000F5F1F4F6801E114F10479F0D701ED91DA
:10182000FC910680F781E02DB801C7010995080FEA
:10183000111DF701E084F184EECFD8011C92F6016E
:1018400001900020E9F73197BF016C197D0940E054
:10185000C601C6CF63E071E0FB01449150E080E82F
:101860000E941B0309CF973009F4BECF983021F4B2
:1018700081E08093F10000CF993009F0FDCE8370B4
:1018800009F0B2CFE9E6F1E081E031E096E32191A1
:10189000222371F08093E9003093EB00DF01119770
:1018A0002C912093EC009093ED008F5F873079F7B7
:1018B0008EE78093EA001092EA008F8980937A0382
:1018C000DBCE8B8D9C8D1092E90010925F031092FD
:1018D0005E0390935D0380935C03898D811192C0B8
:1018E0008E899D89913A49F4813209F07DCF47E094
:1018F00050E062E571E080E0B3CF913209F074CF3F
:10190000833269F48F89988DB0E0A0E080934E0116
:1019100090934F01A0935001B0935101ADCE80320E
:1019200069F48091E80082FFFCCF67E082E591E0F6
:101930000E9472038BEF8093E8009ECE823209F002
:101940009BCE8F8980935901EEEFFFE785919491AB
:101950008B3F9C4D51F1E0E0F8E080915201909175
:101960005301A0915401B0915501803B9440A105D1
:10197000B105F1F48091590180FD1AC0EE3F8AE073
:10198000F80789F587E797E7918380838091600066
:101990008093600388E19BE00FB6F894A89580934C
:1019A00060000FBE9093600067CEEEEFFAE0D5CFF7
:1019B000808191818737974709F05ECEA895809105
:1019C0006000886180936000809160038093600074
:1019D000EE3F2AE0F20789F08091FE0A9091FF0A1B
:1019E0009183808349CE808191818737980751F216
:1019F0009093FF0A8093FE0AC5CF1092FF0A1092BF
:101A0000FE0A3ACE0E947001DC0112960D911C91E3
:101A10000115110509F4E8CED801ED91FC91019072
:101A2000F081E02DBE016B5E7F4FC80109958111E9
:101A300023CEF80100851185EBCF181619060CF49A
:101A40001BCED2CEF1E0FF12BECE67E071E004CF34
:101A50001F920F920FB60F9211242F933F934F9323
:101A60005F936F937F938F939F93AF93BF93EF9306
:101A7000FF938091B900887F803609F44AC0F0F561
:101A8000883209F4A7C018F5803109F49BC0B8F476
:101A9000882309F4F9C0883009F494C0FF91EF91CC
:101AA000BF91AF919F918F917F916F915F914F9176
:101AB0003F912F910F900FBE0F901F901895883176
:101AC00009F488C0803251F78093C50314C0803474
:101AD00009F49DC040F48033B9F38833F9F680935C
:101AE000C50385ECB0C0803509F485C0883509F49C
:101AF00096C0883499F60E94050AD0CF883909F437
:101B00008CC038F5883729F050F4883611F08037CA
:101B100029F683E08093C7031092550357C0883895
:101B200009F47BC0803919F0803809F0B7CF809173
:101B30005503803208F071C0E091550381E08E0FAB
:101B4000809355038091BB00F0E0EB5CFC4F8083F9
:101B50003DC0803B39F0E0F4803A09F479C0883A1E
:101B600009F09CCF84E08093C70310923403109255
:101B70003303E0917D03F0917E0309958091330357
:101B800081110FC081E0809333031092130309C0C9
:101B9000803C09F4A6CF883C09F4A3CF883B09F028
:101BA0007DCFE091340381E08E0F80933403F0E029
:101BB000ED5EFC4F80818093BB0090913403809157
:101BC000330329C08091A2038093BB0085EC8093EE
:101BD000BC0064CF9091C4038091C303981758F55B
:101BE000E091C40381E08E0F8093C403F0E0ED55D3
:101BF000FC4F8081E9CFE091C40381E08E0F809398
:101C0000C4038091BB00F0E0ED55FC4F80839091C0
:101C1000C4038091C3039817C8F285E8D8CFE09138
:101C2000C40381E08E0F8093C4038091BB00F0E079
:101C3000ED55FC4F80838091C60381115CCF81E01C
:101C40008093A10384EA8093BC001092C70326CF3F
:101C500085EC8093BC001092C703809155038032BD
:101C600030F4E0915503F0E0EB5CFC4F10826091A2
:101C7000550370E0E0917B03F0917C0385E393E0F2
:101C80000995109255030ACF1092C50334CF0F93D4
:101C90001F93CF93DF931092F4031092F30388EE17
:101CA00093E0A0E0B0E08093F5039093F603A09357
:101CB000F703B093F80323E731E03093F203209366
:101CC000F1032FEF3FEF3093FE032093FD031092BB
:101CD0004404109243048093450490934604A093D7
:101CE0004704B093480485E891E0909342048093C0
:101CF0004104109286041092850487E991E0909344
:101D000084048093830487E28093870480E1809336
:101D10008C0482E080938D0410928E048DE794E011
:101D20000E940D0187E794E00E940D01CDE4D4E00C
:101D300007E714E0CE010E940D0126960C171D073F
:101D4000C9F7DF91CF911F910F910895CF93DF9342
:101D5000CDB7DEB72C970FB6F894DEBF0FBECDBF60
:101D6000789484B5826084BD84B5816084BD85B576
:101D7000826085BD85B5816085BD80916E00816082
:101D800080936E0010928100809181008260809328
:101D9000810080918100816080938100809180002A
:101DA0008160809380008091910082608093910097
:101DB000809191008160809391008091900081607A
:101DC000809390008091C10084608093C1008091D5
:101DD000C10082608093C1008091C10081608093C6
:101DE000C1008091C30081608093C3008091C000D6
:101DF00082608093C0008091C20081608093C200A5
:101E000080917A00846080937A0080917A00826069
:101E100080937A0080917A00816080937A0080912B
:101E20007A00806880937A0010927A03109261039E
:101E3000109262038091D70081608093D70080EA7E
:101E40008093D80089B5806189BD89B5826089BDDC
:101E500009B400FEFDCF61E070E080E090E00E94F8
:101E600088028091D8008F7C80618093D800809117
:101E7000E000807F8093E0008091E1008E7E80937F
:101E8000E1008DE08093E200559A209A0E94F704C9
:101E90008FEF9FEF9093FE038093FD038CEC91E016
:101EA0000E94EB088AEE91E00E94EB0860E082E07D
:101EB0000E94270260E083E00E94270262E084E043
:101EC0000E94270261E085E00E94270262E086E02E
:101ED0000E94270261E087E00E94270261E088E01B
:101EE0000E94270261E08CE00E9427020E94FE0807
:101EF0000E94F7041092880480918D04823018F0BB
:101F000098E09093880480938B0462E370E080E013
:101F100090E00E94880260918E0483E894E00E9421
:101F20006B0768EE73E080E090E00E94880260E357
:101F300083E894E00E941D080BE416E4C8010197B1
:101F4000F1F760E383E894E00E941D08C80101975F
:101F5000F1F760E383E894E00E941D0883E592E0D6
:101F60000197F1F760E283E894E00E941D088091F8
:101F7000880480620E94530884E0809389048CE086
:101F80000E9453080E94880882E080938A0486E0B9
:101F90000E94530882E00E9453088BE39FE101975F
:101FA000F1F780918A048E7F80938A0484600E9476
:101FB000530868E371E080E00E94900860E371E0FC
:101FC00081E00E94900868E271E082E00E9490083F
:101FD00060E271E083E00E94900868E171E084E0D3
:101FE0000E94900860E171E085E00E94900868E03E
:101FF00071E086E00E94900860E071E087E00E9456
:10200000900888E080938E0460E083E894E00E946A
:102010006B070E94F70481E08093CD0388E68093EC
:10202000EF031092CE031092F0030E942F058E0151
:102030000F5F1F4F882361F060E072E0C8010E94CB
:102040002C0961E0C8010E946809C8010E94D408F7
:102050004BE050E065EB70E0C8010E949D13CE019B
:102060000A960E948207E82EE981E154E33130F5B7
:102070000E2E000CFF0BE15CFF4E0C941714DB12CC
:102080005E105E10F6125E10F9125E105E105E10A9
:1020900052105E105E10E412F312F0125E105E1029
:1020A0005E10ED128A81FF24F394813639F08B8122
:1020B00046E0F42E8E3611F037E0F32ECE01059671
:1020C0000E948207A82E48E050E06CEA70E0C80148
:1020D0000E949D13C8010E948207982ECE0104968B
:1020E0000E948207882ECE0107960E948207782ED2
:1020F000CC24C394C092CD0338E6D32ED092EF0304
:102100001092CE031092F00360E081E494E00E940C
:102110003C074AE0B42E872D6B2D0E94F713682FE1
:10212000660F680F660F670D81E494E00E943C071C
:10213000882D6B2D0E94F713682F660F680F660FAE
:10214000680D81E494E00E943C07892D6B2D0E946C
:10215000F713682F660F680F660F690D81E494E02E
:102160000E943C0760E081E494E00E943C078A2DD5
:102170006B2D0E94F713682F660F680F660F6A0DAC
:1021800081E494E00E943C078F2D6B2D0E94F71391
:10219000682F660F680F660F6F0D81E494E00E9450
:1021A0003C078E2D6B2D0E94F713682F660F680F6A
:1021B000660F6E0D81E494E00E943C070E942F059B
:1021C0000E94FF07F82EC092CD03D092EF03109229
:1021D000CE031092F0036FE081E494E00E943C078C
:1021E0006F2D6F7781E494E00E943C070E942F05D9
:1021F0000E94FF0790E0880F892F881F990B892B79
:1022000061F06EE072E0C8010E942C0960E0C80134
:102210000E946809C8010E94D408109259031092C4
:1022200058038DE192E00E94EB0825E0E22EF12CAC
:1022300061E085E00E94F90161E087E00E94F90118
:102240006EE170E080E090E00E94880260E085E04E
:102250000E94F90160E087E00E94F90160E570E00A
:1022600080E090E00E94880221E0E21AF10801F784
:1022700060E080E00E94590885E392E00E9427090F
:1022800060E08FE00E94590860E083E894E00E94DB
:102290004D0861E080E00E94590882E492E00E94CB
:1022A000270968EE73E080E090E00E94880281E0F8
:1022B0008093560377247394A8E66A2EBEE5EB2E2E
:1022C000B2E0FB2E87E0A82EB12C9EEF892E992438
:1022D0009A947092CD036092EF031092CE03109205
:1022E000F00360E081E494E00E943C070E942F0527
:1022F00067E088E60E9416061092800380937F03B1
:1023000081E494E00E94F5068F77282F30E044E0C6
:10231000359527954A95E1F7922F990F990F322E0F
:10232000391A330C380E81E494E00E94F5069C01C2
:1023300054E0359527955A95E1F72F703327922F62
:10234000990F990F422E491A440C480E81E494E0EB
:102350000E94F5069C0164E0359527956A95E1F7A2
:102360002F703327922F990F990FD22ED91ADD0C87
:10237000D80E81E494E00E94F50681E494E00E9486
:10238000F5069C0174E0359527957A95E1F72F7055
:102390003327922F990F990FC22EC91ACC0CC80E51
:1023A00081E494E00E94F5069C01E4E035952795D0
:1023B000EA95E1F72F703327922F990F990F522E3C
:1023C000591A550C580E81E494E00E94F5069C01C0
:1023D000F4E035952795FA95E1F72F703327922F82
:1023E000990F990F291B220F820F80937D04509221
:1023F0007E04C0927F04D092800440928104309287
:10240000820480915A0390915B03892B09F0FDC0EF
:102410008DE794E00E94BB071B012C0187E794E045
:102420000E94BB07261637064806590609F484C0E1
:10243000809156038823B1F00E9488080E94880882
:1024400060E080E00E94590866E083E894E00E9422
:102450004D0861E080E00E94590867E083E894E05D
:102460000E944D08809182041F928F938091810475
:102470001F928F93809180041F928F938EE492E03D
:102480009F938F931F930F930E940F1660E081E03C
:102490000E945908C8010E94270980917D0490E09C
:1024A0008053984F9F938F9380917E041F928F93B8
:1024B00080917F041F928F93FF92EF921F930F934F
:1024C0000E940F1661E081E00E945908C8010E9435
:1024D000270961E08CE00E94590880917D044091B9
:1024E0007F0460917E0490E00E948F070696B501FC
:1024F0000E940314880F991F805C9E4F0E94270939
:1025000060E08FE00E9459080FB6F894DEBF0FBE5E
:10251000CDBF8091570361E0811101C062E083E883
:1025200094E00E944D081092560380915A039091B6
:102530005B03892B09F069C086E00E94D001892BDA
:1025400009F463C00E94880860E080E00E94590896
:1025500080915703882309F44FC08EE692E00E94D1
:10256000270961E080E00E94590885E892E00E9416
:10257000270961E08FE00E94590887E892E00E94F5
:102580002709DD24D39486E00E94D001892BB9F17C
:102590009FE0D91268C086E00E94D0010E9488089E
:1025A00060E080E00E9459088091570381116CC05F
:1025B00081EB92E06BC08B8124E0F22E823709F42C
:1025C0007DCD98E0F92E7ACD8B81B5E0FB2E823758
:1025D00009F074CD83E0F82E71CDA9E0FA2E6ECD0E
:1025E000FAE0FF2E6BCDEBE0FE2E68CD7CE0F72EFF
:1025F00065CD62E0F62E62CD8BE792E0B0CF7092AF
:10260000560389E892E00E94EB0882E00E94D00124
:102610006C0184E00E94D001892B51F48091580311
:1026200090915903C816D90619F083E00E94D00191
:10263000D0925903C092580380915A0390915B0342
:10264000029748F086E0EDE7F4E0A7E7B4E00190F8
:102650000D928A95E1F780E090E0892B09F439CE5C
:102660000E94000036CE61E08D2D0E94590863E083
:1026700083E894E00E944D0866E970E080E090E015
:102680000E948802D3947FCF87EA92E00E942709B4
:1026900061E080E00E94590888EB92E00E942709DF
:1026A00090925B0380925A0384E0C82ED12C61E0A3
:1026B00085E00E94F90161E087E00E94F9016EE186
:1026C00070E080E090E00E94880260E085E00E9477
:1026D000F90160E087E00E94F90160E570E080E0C8
:1026E00090E00E94880221E0C21AD10801F780918F
:1026F00057038823C9F01092570360E087E00E94D7
:10270000F90184EC92E00E94EB0810925B031092B6
:102710005A036CEB72E080E090E00E9488027092B5
:10272000560387EF92E06FCF7092570361E087E026
:102730000E94F9018FED92E0E6CFFB01DC0102C0BF
:1027400005900D9241505040D8F708950E94E8132B
:10275000A59F900DB49F900DA49F800D911D1124F5
:1027600008952F923F924F925F926F927F928F9235
:102770009F92AF92BF92CF92DF92EF92FF920F9310
:102780001F93CF93DF93CDB7DEB7CA1BDB0B0FB61A
:10279000F894DEBF0FBECDBF09942A8839884888D7
:1027A0005F846E847D848C849B84AA84B984C8846D
:1027B000DF80EE80FD800C811B81AA81B981CE0F64
:1027C000D11D0FB6F894DEBF0FBECDBFED01089549
:1027D000A29FB001B39FC001A39F700D811D112462
:1027E000911DB29F700D811D1124911D0895991B9B
:1027F00079E004C0991F961708F0961B881F7A95F8
:10280000C9F780950895AA1BBB1B51E107C0AA1FF9
:10281000BB1FA617B70710F0A61BB70B881F991F81
:102820005A95A9F780959095BC01CD010895EE0FBA
:10283000FF1F0590F491E02D09940F931F93CF9300
:10284000DF938230910510F482E090E0E0919104F2
:10285000F091920430E020E0B0E0A0E0309799F4ED
:102860002115310509F44AC0281B390B24303105E4
:10287000D8F58A819B816115710589F1FB019383EC
:102880008283FE0111C0408151810281138148176A
:102890005907E0F04817590799F4109761F012961C
:1028A0000C93129713961C933296CF01DF91CF9120
:1028B0001F910F9108950093910410939204F4CF07
:1028C0002115310551F04217530738F0A901DB01FA
:1028D0009A01BD01DF01F801C1CFEF01F9CF90935B
:1028E000920480939104CDCFFE01E20FF31F8193F8
:1028F00091932250310939832883D7CF20918F04B7
:1029000030919004232B41F420915C0130915D01C2
:102910003093900420938F0420915A0130915B01F1
:102920002115310541F42DB73EB740915E0150911C
:102930005F01241B350BE0918F04F0919004E217A6
:10294000F307A0F42E1B3F0B2817390778F0AC01D2
:102950004E5F5F4F2417350748F04E0F5F1F5093AF
:10296000900440938F04819391939FCFF0E0E0E037
:102970009CCFCF93DF930097E9F0FC01329713824D
:102980001282A0919104B0919204ED0130E020E018
:102990001097A1F420813181820F931F20918F0421
:1029A000309190042817390709F061C0F093900422
:1029B000E0938F04DF91CF910895EA01CE17DF07EE
:1029C000E8F54A815B819E0141155105B1F7E901A6
:1029D000FB83EA8349915991C40FD51FEC17FD077A
:1029E00061F4808191810296840F951FE90199839A
:1029F0008883828193819B838A83F0E0E0E0129652
:102A00008D919C9113970097B9F52D913C91119759
:102A1000CD010296820F931F20918F043091900474
:102A20002817390739F6309751F510929204109211
:102A30009104B0939004A0938F04BCCFD383C2833E
:102A400040815181840F951FC817D90761F44E5FEB
:102A50005F4F88819981480F591F518340838A8134
:102A60009B81938382832115310509F0B0CFF093C8
:102A70009204E09391049ECFFD01DC01C0CF13824C
:102A80001282D7CFB0E0A0E0E8E4F5E10C94B313F4
:102A90008C01009751F4CB010E941D148C01C801D8
:102AA000CDB7DEB7E0E10C94CF13FC01E60FF71FC2
:102AB0009C0122503109E217F30708F49DC0D901A7
:102AC000CD91DC911197C617D70798F0C530D10585
:102AD00030F3CE0104978617970708F3C61BD70B70
:102AE0002297C193D1936D937C93CF010E94B91427
:102AF000D6CF5B01AC1ABD0A4C018C0E9D1EA09175
:102B00009104B0919204512C412CF12CE12C10979E
:102B100031F580918F04909190048815990509F002
:102B20005CC04616570608F058C080915A01909133
:102B30005B01009741F48DB79EB740915E015091C3
:102B40005F01841B950BE817F90708F055C0F09357
:102B50009004E0938F04F90171836083A0CF8D917D
:102B60009C91119712966C90129713967C901397E4
:102B7000A815B90559F56C0142E0C40ED11CCA1460
:102B8000DB0420F1AC014A195B09DA0112961597B2
:102B900080F06282738251834083D9016D937C936C
:102BA000E114F10471F0D7011396FC93EE931297A0
:102BB00076CF22968C0F9D1FF90191838083F301BC
:102BC000EFCFF0939204E093910469CF4816590631
:102BD00008F42C017D01D3019ACFCB010E941D1472
:102BE0007C01009749F0AE01B8010E94FF15C801B1
:102BF0000E94B914870153CF10E000E050CFFB01D1
:102C0000DC0102C001900D9241505040D8F7089568
:102C1000FB01DC0101900D920020E1F70895AEE088
:102C2000B0E0E5E1F6E10C94BF130D891E8986E062
:102C30008C831A8309838FEF9FE79E838D83AE0178
:102C4000475E5F4F6F89788DCE0101960E943216E4
:102C50002F813885020F131FF80110822E96E4E0B1
:102C60000C94DB13ABE0B0E0E8E3F6E10C94B113B5
:102C70007C013B018A01FC0117821682838181FF5E
:102C8000C8C1CE0101965C01F7019381F30193FD68
:102C9000859193FF81913F01882309F453C18532C7
:102CA00039F493FD859193FF81913F01853229F499
:102CB000B70190E00E942218E7CF912C212C312CF3
:102CC000FFE1F31538F08B3211F190F4803209F105
:102CD000833229F137FC3CC020ED280F2A3050F513
:102CE00036FE20C08AE0989E200D1124922E06C048
:102CF0008D3291F0803371F7689430F8F30193FDD1
:102D0000859193FF81913F018111DACF21C06894B1
:102D100031F8689432F8F2CF689433F8EFCF6894C2
:102D200034F8ECCFEAE02E9E200D1124222E689478
:102D300035F8E4CF8E3229F436FC04C1689436F8B5
:102D4000DDCF8C3619F4689437F8D8CF8836B1F2D5
:102D5000982F9F7D95549330E0F08336A1F183370F
:102D6000C1F1833509F063C02801F2E04F0E511C18
:102D7000F801C080D180692D70E036FC02C06FEF91
:102D80007FEFC6010E940C184C01689437F882014D
:102D90000AC00C5F1F4FFFE3F98388248394912CB2
:102DA0006501E89437F833FE2DC0522C811491044C
:102DB00071F5552009F468CFB70180E290E00E94D8
:102DC00022185A94F6CFF801808189830E5F1F4F35
:102DD000E4CF2801F2E04F0E511CF801C080D180F1
:102DE000692D70E036FC02C06FEF7FEFC6010E94D4
:102DF00017184C018201D5CFB70180E290E00E9404
:102E000022182A942814190409F0B0F7CECFF6013D
:102E100037FC859137FE81916F01B70190E00E94E8
:102E2000221851105A94F1E08F1A9108BFCF8436BE
:102E300019F0893609F077C0F80137FE6BC0608160
:102E40007181828193810C5F1F4FF32DFF763F2E9E
:102E500097FF09C090958095709561957F4F8F4F32
:102E60009F4F689437F82AE030E0A5010E9452187D
:102E7000C82ECA188C2C432C36FE0CC0E89440F89F
:102E8000C91440F434FE05C032FC03C0F32DFE7EAD
:102E90004F2E892C44FE95C0FE01EC0DF11D808162
:102EA000803309F087C0242D297E422E842D88701E
:102EB000582E43FC95C040FE8FC09C2C821418F401
:102EC0002C0C922C981844FE91C0B70180E390E03E
:102ED0000E94221842FE09C088E790E041FE02C02D
:102EE00088E590E0B7010E942218C91408F48AC04E
:102EF000CA94D12C9FEFC91AD90ACA0CDB1CF6015F
:102F000082916F01B70190E00E942218AC14BD04B9
:102F1000B1F74FCF60817181072E000C880B990BA0
:102F20000E5F1F4F92CFD32CE894D4F82AE030E004
:102F3000853739F1232D297FD22E8F3601F148F4C0
:102F40008835A9F0F701868197812B96E2E10C94F0
:102F5000CD13803749F08837A9F7D4FE02C06894B2
:102F6000D2F820E130E00DC06894D4F8F6CF34FEFA
:102F700003C0822F8660D82E20E132E002C028E014
:102F800030E0F801D7FE0FC06081718182819381AA
:102F90000C5F1F4FA5010E945218C82ECA183D2C65
:102FA000E89437F867CF6081718190E080E00E5F30
:102FB0001F4FF0CF42FC02C0839478CF8394839458
:102FC00075CF842D867809F471CFF6CFB70180E2F2
:102FD00090E00E94221883948214C0F3512C73CF86
:102FE000522C5818821408F46ECFF8CF842D8678AE
:102FF00009F47BCF8BE241FE80E247FC8DE2B70112
:1030000090E071CFB70180E390E00E9422189A947B
:103010006CCF8FEF9FEF99CFFC010590615070400E
:103020000110D8F7809590958E0F9F1F0895FC0191
:103030006150704001900110D8F7809590958E0FE7
:103040009F1F08950F931F93CF93DF93182F092F7E
:10305000EB018B8181FD09C01FEF0FEF812F902FB6
:10306000DF91CF911F910F91089582FF14C02E819F
:103070003F818C819D81281739073CF4E881F981D3
:10308000CF0101969983888310838E819F81019659
:103090009F838E83E3CFE885F985812F0995892B5E
:1030A000A1F3DACFFA01AA27283051F1203181F1BA
:1030B000E8946F936E7F6E5F7F4F8F4F9F4FAF4F40
:1030C000B1E03ED0B4E03CD0670F781F891F9A1F53
:1030D000A11D680F791F8A1F911DA11D6A0F711D07
:1030E000811D911DA11D20D009F468943F912AE013
:1030F000269F11243019305D3193DEF6CF010895FB
:10310000462F4770405D4193B3E00FD0C9F7F6CF2B
:10311000462F4F70405D4A3318F0495D31FD4052F3
:10312000419302D0A9F7EACFB4E0A6959795879589
:1031300077956795BA95C9F7009761057105089568
:103140009B01AC010A2E0694579547953795279514
:10315000BA95C9F7620F731F841F951FA01D0895AC
:04316000F894FFCF11
:10316400000A1F1F11111F00000E1517110E000079
:103174001F110A04040E1F1F001C0C1511110E0050
:103184000C1E171B1B1D0F06000A040A000F0F0E4E
:10319400010A0400000F0F0E0A1F0E04000F0F0E89
:1031A400536F4D6F44694D69446F46725361FFFF1D
:1031B400FFFF00E100000000000000009304800015
:1031C400000040001400540000C180810000000091
:1031D4000000003104AC03520447049804560474FC
:1031E40004000000003C070F077F07E5060807F509
:1031F40006E606000000004D087F037F077E070DEA
:103204000A005B494E464F5D2052656C616973202C
:103214007475726E6564206F666621004572726F04
:103224007221005B4552524F525D200041726F6D16
:103234006174726F6E2044656275672053657269AC
:10324400616C20426567696E3A005B494E464F5D8A
:1032540020536574757020737461727465642E00F4
:10326400525443204E4F5420464F554E440052541E
:1032740043204C4F535420504F574552005B494E06
:10328400464F5D20536574757020636F6D706C6577
:103294007465642E0041726F6D6174726F6E207676
:1032A40031006279204C656F204B65696C002530D4
:1032B40032753A253032753A253032752000253082
:1032C40032752F253032752F25303475200044692E
:1032D4007361726D696E672E2E2E0041726D696E78
:1032E400672E2E2E005B005D005B494E464F5D202D
:1032F40044697361726D6564207375636365737388
:1033040066756C6C79210044697361726D696E67CE
:103314000041726D696E67007375636365737366EC
:10332400756C21005B494E464F5D2041726F6D61A3
:1033340074726F6E2064697361726D656421005BE1
:10334400494E464F5D2041726F6D6174726F6E20FD
:1033540061726D656421005B494E464F5D20417288
:103364006D6564207375636365737366756C6C79DE
:02337400210036
:00000001FF
